:020000040800F2
:10000000D80600209D010008471B000819130008AE
:10001000451B00082B060008A52D00080000000065
:100020000000000000000000000000004D23000858
:100030005D0C000800000000011D0008692A00088E
:10004000B7010008B7010008B7010008B7010008B0
:10005000B7010008B701000841100008B701000807
:10006000B7010008B7010008B7010008B701000890
:10007000B7010008B7010008B7010008B701000880
:10008000B7010008B7010008B7010008B701000870
:10009000812D0008B7010008B7010008B70100086A
:1000A000B7010008B7010008B7010008B701000850
:1000B000B7010008B7010008B7010008B701000840
:1000C000B7010008B7010008B7010008B701000830
:1000D000B7010008B7010008B7010008B701000820
:1000E000B7010008B7010008912B0008B70100080C
:1000F000B7010008B7010008B7010008B701000800
:10010000000000000000000000000000B70100082F
:10011000B7010008B7010008B7010008B7010008DF
:10012000B7010008B7010008B7010008B7010008CF
:10013000B7010008B701000800000000000000003F
:10014000B7010008B7010008B7010008000000006F
:10015000000000000000000000000000000000009F
:100160000000000000000000B7010008B70100080F
:10017000B7010008000000000000000000000000BF
:1001800000000000B7010008DFF80CD000F018F8FC
:10019000004800472D300008D80600200648804758
:1001A00006480047FEE7FEE7FEE7FEE7FEE7FEE75C
:1001B000FEE7FEE7FEE7FEE7212B000889010008C5
:1001C000064C074D06E0E06840F0010394E80700A4
:1001D00098471034AC42F6D3FFF7DAFF48320008F4
:1001E0006832000870B501EB020410F8015B15F0ED
:1001F000070301D110F8013B2A1106D110F8012B99
:1002000003E010F8016B01F8016B5B1EF9D12B07BD
:1002100005D40023521E0FD401F8013BFAE710F871
:10022000013B02F10202A1EB030303E013F8015BBF
:1002300001F8015B521EF9D5A142D6D3002070BD52
:100240000029816802D041F0010101E041F0020182
:1002500081607047F0B54FF0A043104E104C114D27
:10026000984201D0A04202D1D3F8082300E02A68C6
:100270003240D1E900673E43D1E9027C47EA0C37BE
:10028000097C3E4346EA01211143984201D0A04235
:1002900002D1C3F80813F0BD2960F0BDE010FCFFE7
:1002A00000010050080700500029C16802D041F049
:1002B000010101E021F00101C1607047C26822F034
:1002C0000202C260C2680A43C26070472DE9F0436F
:1002D00001219BB0080701F05DFD0121480401F0F8
:1002E00059FD03258DF8045000240E208DF8074099
:1002F000012600908DF805608DF8064069464FF0A4
:10030000904000F069FF0121C80401F043FD8DF821
:1003100004500F208DF8074000908DF805608DF88F
:1003200006406946634800F057FF0121880501F047
:1003300031FD8DF8045014208DF8074000908DF8A1
:1003400005608DF8064069465B4800F045FF4FF0B8
:10035000A04515941694179418948DF8644015A927
:100360002846FFF777FF0121084601F013FDDFF86B
:100370004C91484600F06AFA524E5148CDE90A06BF
:100380008020CDE90E40400010900C948000092799
:100390001190ADF8347020204FF40058CDE91208C8
:1003A0000AA91494484600F0C3FA0121484600F017
:1003B00041FA4FF4887001F0DDFC02A800F01CF94E
:1003C0000121284600F023F90021284600F002F917
:1003D000284600F007F915941694179418948DF890
:1003E000644015A92846FFF735FF01212846FFF78D
:1003F0005BFF02212846FFF761FF284600F064F802
:100400000028FAD1CDE90284049405940694079457
:1004100008948DF8247002A9284600F067F8032399
:1004200001220221284600F07FF803230222194608
:10043000284600F079F803231A460421284600F0E4
:1004400073F8032304220521284600F06DF80323E6
:1004500005220621284600F067F80323062207211B
:10046000284600F061F8032307220821284600F0FF
:100470005BF8032308220921284600F055F80323DE
:1004800009220A21284600F04FF801212846FFF7EB
:10049000D7FE0121284600F021F80028F9D028468F
:1004A00000F0A5F8284600F016F830801BB0BDE833
:1004B000F0830000000800480014004808000240D3
:1004C00040000050440200200146002089680029B5
:1004D00000DA01207047006C80B2704702460020AD
:1004E00012680A4200D001207047000030B5C3688E
:1004F0000C4A1340D1E900242243D1E902452C43A0
:1005000022430C6922434C6922438C6922431A43DB
:10051000C260026B097F22F00F02491E1143016382
:1005200030BD000007C0FFFD70B51F24052A0AD2A8
:10053000056B02EB42025600B440A54301FA06F2F5
:100540001543056326E00A2A0BD2456B521F02EBC6
:1005500042025600B440A54301FA06F21543456332
:1005600018E00F2A0BD2856B0A3A02EB42025600C2
:10057000B440A54301FA06F2154385630AE0C56B52
:100580000F3A02EB42025600B440A54301FA06F2CC
:100590001543C56309290DD982690A3901EB410266
:1005A0000721846991408C43846181699340194398
:1005B000816170BD42694A1E02EB42043822A240AA
:1005C000446994434461426901EB41018B401A4301
:1005D000426170BD826822F08042826082680A4374
:1005E00082607047816841F0004181607047816896
:1005F00041F0040181607047002101604160816029
:10060000C1600161416181610121017770478268A8
:1006100022F0405282600029816802D041F080516E
:1006200001E041F0005181607047FEE7C1B2000A6D
:1006300040EA012070470000044910B5002008601E
:10064000032001F009FF012010BD0000240000205C
:1006500010B50C4640290FD2084A002111602246ED
:10066000C02102F0A1FB2146012001F015FF01206D
:1006700001F038FF012010BD002010BD180000203F
:100680002DE9F84F0020ADF80000DFF830A14BF65F
:10069000BF7648F28007484D40F68F78474C48F6C1
:1006A0000F7BDFF81C910AF1440A2DE0018811F05C
:1006B0000F0244490A7030D004EB82000168ADF8A3
:1006C0000010BDF8001009040BD53E49026802EA8B
:1006D000080202603C4A087802EB800050F8040CE3
:1006E0008047BDF8000000060ED53649087804EBB7
:1006F0008002106800EA0B0010603448097800EBB3
:10070000810050F8040C8047DAF800104846A9F838
:1007100000100904CAD4BDE8F88F2168298029880F
:1007200001F030016980298801F440512980216855
:10073000314081F4005181F020013943216000886B
:10074000C006206815D400EA0B00206000F03EFED1
:1007500026E02988890401D580F400506988C906FB
:1007600026D46988890601D580F0200038432060AE
:10077000D1E7ADF80000BDF80000000506D52068FF
:1007800000EA0800206001F057FF09E0BDF8000012
:100790000004B9D5206800EA0800206001F07CFA66
:1007A000206829883040C904D3D580F48050D0E730
:1007B00080F01000D5E700004A010020005C0040F6
:1007C0004A00002038010020700000205400002062
:1007D000074901EB80000168490407D5016848F624
:1007E0008F7211404CF2800211430160704700008B
:1007F000005C0040074901EB80000168490607D50D
:10080000016848F68F72114048F2C002114301603E
:1008100070470000005C0040054901EB800108685A
:1008200048F68F62104048F280021043086070471B
:10083000005C00400029016802D041F0010102E0A3
:100840004FF6FE72114001607047000001684FF6DC
:10085000FE72114001600021016041608160C16051
:100860003149314A0839904203D1486840F00F00BD
:1008700006E02D4A1432904204D1486840F0F0005E
:1008800048607047284A2832904203D1486840F4B3
:100890007060F5E7244A3C32904203D1486840F446
:1008A0007040EDE7204A5032904203D1486840F44E
:1008B0007020E5E71C4A6432904203D1486840F456
:1008C0007000DDE7184A7832904203D1486840F062
:1008D0007060D5E7154A111F904203D1086840F0B7
:1008E0000F0006E0114A1432904204D1086840F02B
:1008F000F000086070470D4A2832904203D1086822
:1009000040F47060F5E7094A3C32904203D1086830
:1009100040F47040EDE7054A50329042EAD1086851
:1009200040F47020E5E7000008000240080402409F
:1009300030B5036847F6F07293430C6A8A68224325
:10094000D1E904452C4322438C692243CC692243DC
:100950004C6A22438C6A22431A4302608A894260AD
:100960000A6882604968C16030BD00002DE9F04727
:10097000DFF89480254F4FF03009D8F8001001F1CE
:100980001005088A0E7A08B9042E04D0AC88A0425B
:1009900015D8042614E01E480178012903D0072643
:1009A000102038802BE01B4A002112681A4B92B2AB
:1009B00003EB42025160A7F8009001701FE002268D
:1009C000844200D90446A968204688478246002010
:1009D00000F07AFC01462246504602F0E5F9214635
:1009E000002001F059FD2888001B288068882044D9
:1009F0006880A7F8009009494FF440500880D8F863
:100A000000000672BDE8F0873C0100204C01002088
:100A100034010020505C0040006000404A0100208A
:100A20002DE9F047224EDFF88C803027356835F805
:100A3000100FA968A9B100B3AC88844200D904465C
:100A40002046884781462888001B288068882044E3
:100A50006880002000F018FC01462246484601F05C
:100A60003FF9288848B114494FF4405008800021CC
:100A7000084601F011FDA8F800702888A98888426E
:100A800001D3032001E020B1052031680872BDE8E0
:100A9000F087316806200872084900200968084A72
:100AA00089B202EB41014860A8F80070EFE700004E
:100AB0003C0100204C0100204A010020505C004015
:100AC00000600040F8B55C4C5C4D092620680027AA
:100AD00029684278062A05D0AAB1082A4BD00A2AEA
:100AE0004ED069E00278520666D18078012804D0A1
:100AF000022804D0032804D05EE0C96954E0096AE2
:100B000052E0496A50E04288A2BBC288022A53D10F
:100B100002797ABB0278530601D1838833B102F09F
:100B20007F02012A04D0022A0CD045E044493BE070
:100B30008A69407900219047E0B92068807A0028CE
:100B4000F4D139E0417901F00F0001F070020B0699
:100B50003C4951F8201003D5C1F30111090102E00D
:100B6000C1F301310903384B1B78834224D90AB9F8
:100B70000029DBD120E0007840061DD1334913E085
:100B8000027802F07F02012A16D1827AA2B142884D
:100B900092B9027982B9C288012A0DD18A69407955
:100BA0000021904740B92A4931B1206847828161CC
:100BB00000208847002006E02968206809694078FD
:100BC0008847032807D021680A8AA2F57F43FF3BA4
:100BD00004D10E72F8BD20680672F8BD022809D053
:100BE00042B10878000621D5C8880090824205D914
:100BF000088213E04FF008000872F8BD0ED2286892
:100C0000144B90F82C00824201D21F7006E0B2FB18
:100C1000F0F400FB142008B901201870286890F83F
:100C20002C008882BDE8F840FFF7A0BE03200872C0
:100C3000094900030880F8BD3C0100204001002064
:100C4000F9270008005C0040F80000208D2700080C
:100C5000D1270008340100204A01002070471FB549
:100C600000248DF8084014208DF80900E0208DF84C
:100C70000B008DF80A4002A800F034FE8DF8004009
:100C800040208DF8010007208DF802008DF8064005
:100C900008208DF804408DF803008DF80540684663
:100CA00000F06EFD80208DF80C0010208DF80D00F6
:100CB0008DF80E408DF80F4003A800F043FD1FBDD6
:100CC00070B506462DED028B86B00024B7EE008A83
:100CD00002236A462321322000F034FE062301AAB3
:100CE0002821322000F02EFE9DF80120500601D56B
:100CF000402100E010219DF8000003AD430601A84B
:100D000001D5520610D500EB440310F814205B788F
:100D10001B0202FA83F292FBF1F225F81420641C04
:100D2000E4B2032CEFD30FE000EB440210F81430D0
:100D300052781B0202FA83F292FBF1F225F814209A
:100D4000641CE4B2032CEFD302236A462321322031
:100D500000F0F8FD9DF80100B5EE000A40060ED443
:100D60009DF8000010F030000ED0102804D020288C
:100D700005D0302808D105E0B6EE008A04E0B0EED8
:100D8000408A01E09FED0B8A5FF0000135F9110008
:100D900000EE100A06EB8100491CB8EEC00AC9B289
:100DA0000329C0EE080AC0ED000AEFD306B0BDEC7F
:100DB000028B70BD9FCDAA3D2DE9F84380460020EF
:100DC0008DF8000004460746064601236A46194688
:100DD0003C2000F0B7FD0123454A03213C2000F0F0
:100DE000B1FD434D01236A1C04213C2000F0AAFD03
:100DF0000123AA1C07213C2000F0A4FD0123EA1CCA
:100E000008213C2000F09EFD01232A1D05213C20E5
:100E100000F098FD01236A1D06213C2000F092FDA0
:100E20009DF8000000F0E0014FF4C87080291DD04B
:100E300006DC20290BD040290ED0602925D110E0F6
:100E4000A02917D0C02919D0E0291ED11BE040F2FB
:100E50004C444FF4757718E040F257344FF43E7726
:100E600013E040F29E244FF416770EE04FF4E17445
:100E700007460AE0044640F2631706E04FF4A57403
:100E800040F2271701E0E624CD2705EB460015F8D0
:100E90001610407800EB01204FF47A7110FB01F03E
:100EA00000EE100A08EB8600761CF8EEC00A00EE91
:100EB000104AF6B2022EB8EE400A80EE801A80ED9B
:100EC000001AE2D36879297900EB01204FF47A7196
:100ED00010FB01F000EE100AF8EEC00A00EE107AE6
:100EE000B8EE400A80EE801A88ED021ABDE8F88359
:100EF0001C0000203EB5082000248DF800008DF86D
:100F0000014007208DF8020030208DF803008DF895
:100F100004408DF8054010208DF80600684600F06A
:100F2000CCFA8DF808408DF8094002A800F0ACFA20
:100F3000102000F095FA3EBD70B505462DED028BF0
:100F400086B0002000900190029003908DF8100070
:100F500004469FED288A0122232104A800F076FB95
:100F600006222821684600F071FB9DF810106846A3
:100F70004B0602AA0DD400BF00EB440610F8143053
:100F8000767803EB062322F81430641C032CF3DB81
:100F90000BE000EB440310F814605B7803EB0623CE
:100FA00022F81430641C032CF3DB11F0300004D061
:100FB000102805D0202808D105E09FED0F8A04E015
:100FC0009FED0E8A01E09FED0E8A002132F911009B
:100FD00000EE100A05EB8100491CB8EEC00A032997
:100FE000C0EE080AC0ED000AF0DB06B0BDEC028BD3
:100FF00070BD000000000000EC91E4425492644295
:101000005C8F64410149012008607047180000208E
:10101000084910B501200860032000F045F9064991
:1010200002460860BDE810404FF48871034800F0A4
:1010300057BE00002400002044000020A40100202E
:1010400070B5002000F040F8012829D1002001F0FF
:1010500025F9002824D0134C00262660124D02E00A
:101060002068401C20602068A842F9D3002001F0CD
:1010700015F90028FAD1266002E02068401C2060A3
:101080002068A842F9D309480168491C0160016839
:10109000012900D90660BDE87040002000F008B8C2
:1010A00070BD000030010020FFFF0700100000208D
:1010B00000F01F0201219140024A20F01F008150E0
:1010C000704700001404014001460A4B10B521F09E
:1010D0001F020020D35801F01F040121A140054C3C
:1010E0000B40143412590A4202D0002B00D00120C8
:1010F00010BD000000040140F0B50468354B04F059
:101100001F028579012101FA02F224F01F041C4418
:10111000002D59D025689543256002681C1D22F0DA
:101120001F052C44256802F01F0201FA02F29543C4
:1011300025600468027924F01F051D442A441568BF
:1011400004F01F0401FA04F4254315600568214CDE
:1011500025F01F0208342244166805F01F0501FA25
:1011600005F5AE4316600668221D26F01F051544DE
:101170002F6806F01F0C01FA0CF6B7432F60457973
:10118000102D0BD0026822F01F0018442844036879
:1011900002F01F0291400B430360F0BD056825F08B
:1011A0001F0323441C6805F01F0501FA05F52C43B5
:1011B0001C60006820F01F031A44136800F01F0031
:1011C00081400B431360F0BD0079204401689143D6
:1011D0000160F0BD00040140F0B5002201250324A8
:1011E0000E6805FA02F31E409E422DD10E79012EA3
:1011F00001D0022E13D18768560004FA06FC27EAB4
:101200000C0787604F79B7408668374387608688C8
:101210009E43868086888B7993401E43868007682C
:10122000560004FA06F39F4307600F79D0F800C018
:10123000B74047EA0C070760C7689F43C760CB7990
:10124000B340C6683343C360521C102AC8D3F0BDF4
:101250004B07DB0E9A40C90810B500EB8100016A0C
:101260000F249C40A1430162016A1143016210BD39
:1012700002460020128A0A4200D0012070470185F0
:1012800070478161704700000549096889B201EB28
:10129000C000044901EB4000008980B270470000A3
:1012A000505C0040006000400549096889B201EBCC
:1012B000C000044901EB40008089C0F30900704779
:1012C000505C0040006000400449096889B201EBAD
:1012D000C000034931F8100080B27047505C0040F4
:1012E000006000400A4810B50168001D0468001D38
:1012F000006808180BD00822064900F095F8054947
:1013000020460422BDE81040103100F08DB810BD19
:10131000ACF7FF1F2A000020FEE7C16170470029DB
:10132000016802D041F0010101E021F001010160FA
:1013300070470246002092690A4200D0012070479F
:1013400010B5026822F0010202600268124B1A40D6
:10135000D1E9013442EA0422134303600A6822F00F
:1013600070620261026842F0010202600022826043
:10137000C2600B698A691A438260826842F4004243
:101380008260CA680368134303604268034B49697B
:101390001A401143416010BDFFE0CF00FF7FFF07FF
:1013A000406AC0B2704781627047000070B54468FF
:1013B000049DC1F30901044E41EA0241194334403E
:1013C00029432143416070BD009800FC10B5134CC7
:1013D0002068017A022904D0042902D0062905D008
:1013E00015E0FFF7C3FA2068007A11E0417805297B
:1013F00009D10178490606D1C07800F0C5FF084838
:101400000068006A804707480068806880470820B5
:1014100021680872BDE8104000F074BC3C01002057
:101420004401002040010020F0B500230A243025AB
:1014300037261F4611E000BFB4EB107F02D905EB41
:10144000107C01E006EB107C01F813C001EB430CAB
:1014500000015B1C8CF80170DBB29342ECD3F0BD51
:1014600038B5044601222421684600F0EFF89DF8C3
:101470000000012200F0EF0020438DF8000024213D
:10148000684600F03DF938BD38B5044601222121F7
:10149000684600F0DBF89DF8000000F0C0018DF810
:1014A000001020786278104308438DF80000012274
:1014B0002121684600F024F938BD1CB504460020FF
:1014C0008DF800008DF8040000F022F82078617893
:1014D000E2780843A178114308439DF800109DF875
:1014E000042008438DF80000207961790843A17930
:1014F000114308438DF8040001222021684600F0C2
:10150000FFF80122232101A800F0FAF81CBD000019
:101510002DE9F04101210F0388B0384600F05EFC50
:101520000121480400F036FC01214C05204600F062
:1015300031FC0121204600F02DFC0121204600F065
:1015400029FC05224FF0904811464046FFF780FEE7
:10155000052206214046FFF77BFE05220721404673
:10156000FFF776FE02268DF8046000248DF8064011
:1015700020208DF80740032500908DF8055069461E
:101580004046FFF729FE8020009069464046FFF75D
:1015900023FE4020009069464046FFF71DFEDFF81D
:1015A000A480404600F0C4FD4FF4E060ADF80C00AC
:1015B000ADF810403002ADF812001020ADF8140064
:1015C0000720ADF81800ADF808404FF48270ADF870
:1015D0000A00ADF80E40ADF8164002A9404600F0F2
:1015E000D8FD3946404600F013FE0121404600F088
:1015F00095FD012708208DF80470DFF84C800090DD
:101600008DF806408DF8055069464046FFF7E4FD29
:1016100008214046FFF735FE8DF804408DF806405E
:101620008DF8055000978DF8074069464046FFF752
:10163000D3FD694640460096FFF7CEFD08B0BDE8F1
:10164000F081000000300140001000482DE9F04119
:1016500014460546012A02D941F0C00601E041F0D6
:1016600080060C4F08213846FFF709FE304600F08F
:1016700013F806E0002000F00FF8641E05F8010BD7
:10168000A4B2002CF6D13846BDE8F0410821FFF79E
:10169000F8BD0000001000482DE9F041154C4FF452
:1016A000805607462660144D03E02068411E2160E5
:1016B000D0B10221284600F065FD0028F5D039465A
:1016C000284600F0ADFD266003E02168481E20603A
:1016D00051B10121284600F055FD0028F5D02846DB
:1016E000BDE8F04100F092BD00F008F8C0B2BDE8DE
:1016F000F08100009C010020003001400020704774
:101700002DE9F041144605460E46012A01D941F063
:1017100040060B4F08213846FFF7B1FD3046FFF772
:10172000BBFF05E02878FFF7B7FF641EA4B26D1C6D
:10173000002CF7D13846BDE8F0410821FFF7A1BDE4
:101740000010004838B5044601236A4621213220A2
:1017500000F0F8F89DF8000000F00C008DF8000093
:1017600021786278E3781143A2781A431143014348
:101770008DF800106A462121322000F063F938BD4F
:101780001CB5044600208DF800008DF8040000F020
:1017900021F8207861789DF800200843A178114352
:1017A00008438DF8000020796179E2780843A17937
:1017B000114308439DF804106A4608438DF804005D
:1017C0002021322000F03EF901AA2321322000F02E
:1017D00039F91CBDF0B501214C058BB0204600F055
:1017E000E5FA0121880400F0D5FA0121204600F035
:1017F000D1FA0121204600F0CDFA0121204600F067
:10180000C9FA344F042206213846FFF721FD04228D
:1018100007213846FFF71CFD02258DF804500024EF
:101820008DF8064040208DF80750032600908DF873
:10183000056069463846FFF7CFFC80200090694676
:101840003846FFF7C9FC8DF804408DF806400420A7
:10185000214F8DF8074000908DF8056069463846A5
:10186000FFF7BAFC0221042000F072FD8DF8284039
:1018700008208DF8290001208DF82A00099509A873
:10188000FFF73AFC07941548154D03940290059410
:101890000494069402A908942846FFF751FD0121FB
:1018A0002846FFF73CFD8DF8044010208DF80640D7
:1018B00000908DF805608DF8074069463846FFF7BF
:1018C0008BFC2020009069463846FFF785FC0BB062
:1018D000F0BD0000000400480010004825209000E2
:1018E000005400403EB5044600208DF800008DF8FD
:1018F00004008DF80800FFF76DFF207861786A46D4
:1019000008439DF8001008438DF80000E0789DF82A
:10191000041008438DF80400A0789DF808100843CF
:101920008DF8080000213C2000F08CF801AA01216C
:101930003C2000F087F802AA02213C2000F082F847
:101940003EBD00002DE9F84F3B4C4FF420451E46AC
:1019500090460F46834625604FF4004ADFF8DC903E
:1019600004E02068411E2160002854D051464846BA
:10197000FFF7DFFC0028F4D14FF400500090002363
:10198000012259464846FFF711FD256003E0206813
:10199000411E2160D0B302214846FFF7CAFC00284F
:1019A000F5D0012E01D947F0800739464F46484609
:1019B000FFF7F9FC256003E02068411E216028B391
:1019C00040213846FFF7B5FC0028F5D04FF4105001
:1019D0000090F2B24FF0007359463846FFF7E6FC2C
:1019E00010E02068411E216080B104213846FFF7D5
:1019F000A0FC0028F5D03846FFF7D2FC761E08F888
:101A0000010BB6B22560002EEFD109E003E021689A
:101A1000481E206021B900F013F880B2BDE8F88FAD
:101A200020213846FFF785FC0028F0D020213846D9
:101A3000FFF773FC0020F1E7A001002000540040F4
:101A4000002070472DE9F84F354C4FF420461746DB
:101A50008A46814626604FF40048324D04E02068F3
:101A6000411E2160002857D041462846FFF761FCFF
:101A70000028F4D14FF40050C302009001224946DF
:101A80002846FFF793FC266003E02068411E216092
:101A900080B302212846FFF74CFC0028F5D05146C0
:101AA0002846FFF780FC266003E02068411E216085
:101AB00000B380212846FFF73CFC0028F5D0002029
:101AC00000904FF00073012249462846FFF76EFC54
:101AD000266003E02068411E216058B1022128469B
:101AE000FFF727FC0028F5D039782846FFF75BFC84
:101AF000266004E010E02168481E206061B12021CA
:101B00002846FFF716FC0028F5D020212846FFF7CD
:101B100004FC0020BDE8F88FFFF792FF80B2F9E7E0
:101B2000A0010020005400400448817A044809B113
:101B3000052100E00121016000F0F2BFB8020020A1
:101B400020010020FEE7704770470000F0B50F212C
:101B5000C478027801234FF0E026DCB1124C2468EF
:101B6000457804F4E064C4F5E064240AC4F1040791
:101B7000E1408478BD400C402C4321010B4C1155B1
:101B8000007800F01F018B40400906EB8000C0F890
:101B90000031F0BD02F01F008340500906EB8000C9
:101BA000C0F88031F0BD00000CED00E000E400E082
:101BB0000249084302490860704700000000FA0526
:101BC0000CED00E070B52F4D2868017844784A0686
:101BD00006D001F07F00012828D002282BD035E064
:101BE000092C06D0052C07D0032C0ED0012C14D0C4
:101BF0002CE000F049FE28E0C1787F292ED88178BA
:101C000061BB818851BB807A27E0C17801291DD151
:101C10008088D8B900F054FE17E0C178012915D1A9
:101C2000818899B9407A80060AD40FE00B2C0DD137
:101C300000F098FE09E0012C02D0032C03D005E04F
:101C400000F02EFD01E000F04DFE58B10E49204697
:101C5000096849698847032802D018B108200DE0B7
:101C600009200BE0094A062000211268084B92B2B5
:101C700003EB42025160074A302111802968087243
:101C800070BD00003C01002040010020505C00407D
:101C9000006000404C01002010B50F4C2068007A15
:101CA000022811D004280FD0032804D0052802D020
:101CB000072805D008E0FEF7B3FE2068007A04E0AC
:101CC00006480068C0688047082021680872BDE89F
:101CD000104000F017B800003C0100204001002037
:101CE000064B521C520803EB410105D031F8043B6E
:101CF00020F8023B521EF9D17047000000600040FE
:101D0000704700000C4810B590F82C10002000F02F
:101D10006BFB0A480068007A082802D0092809D01D
:101D200006E007494FF480500880064910200880DB
:101D3000002010BD012010BDA80000203C010020A3
:101D40004A0100204C01002010B5012000F02EFFB8
:101D50000648012101600021054A0160031D196048
:101D60004FF4E05111800160002010BD405C004044
:101D7000480100200649020FCA6A02D022F47852B4
:101D800001E022F4F872CA62CA6A0243CA6270476A
:101D900000100240044A0029516901D0014300E0CB
:101DA000814351617047000000100240044A00293D
:101DB000D16901D0014300E08143D1617047000047
:101DC00000100240044A0029116901D0014300E0DB
:101DD000814311617047000000100240044A00294D
:101DE000916901D0014300E0814391617047000097
:101DF00000100240044A0029D16801D0014300E0EC
:101E00008143D16070470000001002402DE9F04F7F
:101E10008E4900224B688E4C13F00C0303D0042B28
:101E200001D0082B01D0046012E04A684B6802F42C
:101E300070124FF0020513F4803F05EB92423AD046
:101E4000CB6A03F00F035B1CB4FBF3F35A4302604D
:101E50008A46884649680F23DFF8F89103EA111192
:101E600019F80170016821FA07F34360D8F80450AB
:101E7000072606EA152519F8055023FA05F58560A9
:101E8000D8F804C006EADC2619F8066023FA06F33F
:101E9000C360D8F82C809C464FF01F0B0BEA181338
:101EA00009F1100E3EF813305FEAC36806D5B2FBA5
:101EB000F3F3036103E0684B5A43C8E70161DAF8C2
:101EC0002C80D1460BEA58233EF813305FEAC368F2
:101ED00003D5B2FBF3F3436100E04161D9F83080F0
:101EE0004B465FEAC86801D4846100E08161D3F8A1
:101EF00030805FEA886801D4C46100E0C161D3F832
:101F000030805FEAC85808D5914206D1BE4204D15C
:101F10004FEA4208C0F8208001E0C0F820C0D3F8A2
:101F200030805FEA885806D5914204D1BE4202D182
:101F30005200426201E0C0F824C01A6B96074FF4C9
:101F400000420ED01E6B06F00306012E0CD01E6B55
:101F500006F00306022E09D01E6BF643B60707D023
:101F600007E0C0F828C004E0816202E0826200E07D
:101F700084621E6B16F4403F0FD01E6BC6F3014601
:101F8000012E0CD01E6BC6F30146022E09D01E6B2B
:101F9000C6F30146032E06D006E0C56204E0C16226
:101FA00002E0C26200E0C4621E6B16F4402F0FD044
:101FB0001E6BC6F38146012E0CD01E6BC6F3814604
:101FC000022E09D01E6BC6F38146032E06D006E012
:101FD000056304E0016302E0026300E004631E6B3A
:101FE00016F4401F0FD01E6BC6F30156012E0CD005
:101FF0001E6BC6F30156022E09D01E6BC6F30156A6
:10200000032E06D006E0456304E0416302E042632C
:1020100000E044631E6B16F4400F11D01D6BC5F336
:102020008155012D0ED0196BC1F3815102290BD0BE
:10203000196BC1F38151032900D18463BDE8F08F8E
:102040008563FBE78163F9E78263F7E700100240ED
:1020500000127A004E01002000093D00014908608D
:1020600070470000D80042422DE9F041214C07287A
:1020700000D0207022781F4D0626052104271E4817
:10208000062A0BD2DFE802F0030C11161E2768683F
:1020900010B12170BDE8F08100F030F82670F9E74A
:1020A00000F02CF82770012022E00220607003204D
:1020B0002070EFE76078401E607060780028E9D1FA
:1020C0002770E7E7026892B242F0100202602170C6
:1020D0000A206070DEE76178491E6170617800292E
:1020E000D8D1016889B221F010010160267000206A
:1020F0006860CFE728010020405C004010B5064C26
:10210000206880B220F004002060FFF70DFD4FF43E
:102110003F40206010BD0000405C00400029018865
:1021200002D041F0400101E021F040010180704700
:10213000114910B588420AD1841401212046FFF7C5
:1021400059FE2046BDE810400021FFF753BE0B4961
:10215000884202D10121041404E0094988420AD1CD
:102160000121C4132046FFF72DFE2046BDE8104094
:102170000021FFF727BE10BD0030014000380040AD
:10218000003C00400246002012890A4200D0012093
:10219000704730B54A88B2F5827F1ED0828822F41B
:1021A00070638A881A43828002880C8902F4415342
:1021B000CA888D8922434C892C43CD892C432243E4
:1021C0000C884D882C4322431A430280828B22F4D0
:1021D00000628283098A018230BD02880C8902F480
:1021E0004153CA888D8922434C892C43CD892C4385
:1021F00022430C8844F4827422431A43028082886A
:1022000022F470638A881A438280DFE7007B70477C
:10221000828822F48052828082880A4382807047BA
:10222000017370471CB504460E48012150F8240084
:10223000FFF7B0FD0B480021103830F81400009073
:1022400001208DF804008DF806108DF8070003209A
:102250008DF805000448694650F82400FEF7BCFFDD
:102260001CBD0000283200087C0100200349044AFC
:1022700031F8101052F8200001857047183200081C
:102280007C0100200349044A31F8101052F8200064
:1022900081617047183200087C0100200349044A1C
:1022A00031F8101052F82000FEF7E2BF103200089B
:1022B0007801002070B5044622480E4686B050F8DA
:1022C00024000121FFF766FD01210846FFF786FD86
:1022D0001C4800258DF81050001F8DF8135030F861
:1022E00014000390184803A950F82400FEF774FF67
:1022F000012E25D11348C01F015D401E005D00F076
:1023000027F81048801E30F8140000908DF8045013
:1023100008208DF8050001258DF806506846FEF767
:10232000EBFE0848801F005D8DF808000F208DF837
:1023300009008DF80A008DF80B5002A8FFF706FC83
:1023400006B070BD1432000878010020704700000C
:1023500010B58A0721F003040649130F21440F2208
:102360008C689A4094438C608A68984002438A60E3
:1023700010BD000000000140024920F00700086085
:1023800070470000505C0040F0B50D490D4D48F617
:102390008F770B78002148F2800C09E0CEB205EB74
:1023A000860422683A40324342EA0C022260491C09
:1023B0009942F3D3034940F080004C310860F0BDEE
:1023C000F8000020005C0040054A21F0010112687D
:1023D00092B202EBC000034A02EB400081607047FA
:1023E000505C0040006000400D4A12683E2992B2E5
:1023F00002EBC0000B4A02EB400209D94809C906AA
:1024000001D1401E80B24FF4004141EA802004E037
:102410004808C90700D0401C8002106070470000C7
:10242000505C00400C6000400A4A02EB80021068D9
:102430004BF68F7300EA0300CB0401D580F4805083
:10244000890401D580F4005048F2800108431060EF
:1024500070470000005C0040064901EB80010868FD
:102460004BF68F72104080F4405048F280021043C7
:1024700008607047005C0040054A21F001011268C5
:1024800092B202EBC000034A42F8101070470000FD
:10249000505C004000600040044A126892B202EBB7
:1024A000C000034A02EB400041607047505C0040AE
:1024B000006000400A4A02EB8002106848F6BF73D1
:1024C00000EA0300CB0601D580F01000890601D593
:1024D00080F0200048F2800108431060704700003F
:1024E000005C0040064901EB8001086848F6BF72B5
:1024F000104080F0300048F28002104308607047BE
:10250000005C0040044A02EB8002106848F68F131A
:102510001840084310607047005C00400CB5002173
:10252000214801910091026842F4803202604FF428
:10253000A063026802F400320092019A521C0192D8
:10254000009A12B9019A9A42F3D10268920329D5EE
:102550000121164A009112211160416841604168D1
:102560004160416841F480614160416821F47C111F
:102570004160416841F4E8114160016841F08071B7
:10258000016001688901FCD5416821F003014160C7
:10259000416841F0020141604168C1F381010229B3
:1025A000FAD10CBD00910CBD001002400020024089
:1025B0001CB501210846FFF711FC01214805FFF772
:1025C000E9FB01214804FFF7E5FB4FF4C050009000
:1025D00003208DF8050002208DF8040000208DF8FE
:1025E00006008DF807004FF0904469462046FEF73C
:1025F000F3FD0E220B212046FEF72AFE0E220C21AF
:102600002046FEF725FE1220FEF752FD0448122157
:1026100001600821417101218171FEF76DFD1CBD32
:102620000000002010B50020FFF718FD0121BDE8D3
:102630001040C805FFF7BABB70B516480068174DC3
:1026400081B2154800EB4101098989B200EB4104D0
:102650002868017A09290FD02178017061784170CA
:10266000A088FDF7E3FF296848802089FDF7DEFF99
:1026700029688880A089C880286801210172C088E3
:1026800028B1FEF71FFABDE87040FFF73BBBFFF72C
:1026900099FAF8E7505C0040006000403C010020DF
:1026A0002DE9F04134480068017811F07F0102D033
:1026B000022905D05DE0417A01F0DF01417247E077
:1026C0004188002955D10179F1BB41792C4D21F088
:1026D00080040A06294B55F8242003D5C2F30112C1
:1026E000120102E0C2F3013212031E782346A64211
:1026F0003FD94AB3807A38B308060DD555F824007F
:10270000C0F3011001281DD11846FEF773F82046CA
:102710003021FFF7CFFE15E005EB84063068C0F3EB
:10272000013001280ED14BF68F7748F2800894B122
:102730001846FEF74DF83068384080F4405040EAC3
:10274000080030600F4800E013E0006840698047EF
:102750000020BDE8F0810C4890F82C100020FFF715
:1027600043FE2868384080F4405040EA0800286062
:10277000E8E70220EDE700003C010020F80000201F
:10278000005C004044010020A800002010B5074C68
:1027900030B1074800680068804720680A3010BDE3
:1027A000216801200882002010BD00003C010020AB
:1027B00044010020054A13685A8A10B10868104481
:1027C00070478888801A1882002070473C010020DA
:1027D00010B5074C30B10748006880688047206812
:1027E0000C3010BD216801200882002010BD0000BF
:1027F0003C010020440100201F4910B5096860B168
:102800001E48002202800A7853060AD002F07F0296
:10281000012A16D0022A16D001E0022008820020E8
:1028200010BD497A8A06027802D542F0020201E020
:1028300002F0FD0249060270D1B210D401F0FE018F
:102840000FE00E4810BD4A7902F00F0113060C4A42
:1028500052F8211007D5C1F3011106E0017841F0CB
:102860000101017003E0C1F301310129F6D00548EF
:10287000006800698047E4E73C0100203601002041
:10288000005C0040440100200A4810B500680A4A74
:10289000C1785278914203D882780AB982880AB105
:1028A000022010BD81720548006840688047002002
:1028B00010BD00003C010020F80000204401002071
:1028C000064810B50068417A41F020014172044881
:1028D0000068C0698047002010BD00003C01002056
:1028E0004401002070B51B4803681B48597921F04A
:1028F000800500EB85000C06046821F0800203D5FA
:10290000C4F30114240102E0C4F301342403134D81
:102910002D7895420FD95A886AB964B19A7A52B122
:102920000906016848F2800207D548F6BF731940CE
:1029300081F0100106E0022070BD4BF68F73194044
:1029400081F4805111430160054800688069804727
:10295000002070BD3C010020005C0040F800002019
:102960004401002010B50E4C0E4A20681268C17850
:1029700092694079904721688A7A22B118B908791A
:1029800008B9887808B1022010BD07480068C068FF
:10299000804720684179C172C1780173002010BD61
:1029A0003C0100204001002044010020F8B52A49E4
:1029B000002000900A68284B284C92B2403B00BF90
:1029C00053F82050ADB244F82050401C0828F7D3EB
:1029D00042F48060086040F00100086020F00105CA
:1029E0000D601D4A121D10684005FCD54FF6FF30E2
:1029F0001060002054F82060B6B243F82060401CFC
:102A00000828F7D345F008000860086880B240F055
:102A100004000860124B18680090186820F003004A
:102A200040F0010018600F48046844F0040404609A
:102A30001468E40401D430BF09E04EF6FF7414605A
:102A40000A6892B222F008020A60009919600168CF
:102A500021F004010160F8BD405C004058020020F4
:102A60000070004010ED00E0264910B50A68012012
:102A7000142A00D164200968B1F5FA6F00D1012051
:102A8000214C2178491C21702178814238D30020C3
:102A9000FFF7F8FB1D48FEF74FFA1D48FEF78CF9CB
:102AA0001C48FEF70DF9194A1B480021535C43549A
:102AB000491C0C29FAD3164A0C21531813F80C3C64
:102AC0004354491C1829F8D3124A1821531813F8F3
:102AD000183C4354491C2429F8D3104A2421531884
:102AE00013F8243C4354491C3629F8D336210A48AC
:102AF000FDF7AEFD00202070BDE81040FFF7B6BB2B
:102B000010BD00001400002009000020FC0100207E
:102B1000E4010020F001002078020020440200209F
:102B2000164810B5016841F470010160144801684D
:102B300041F0010101604168124A114041600168A1
:102B4000114A11400160016821F48021016041684F
:102B500021F4FE014160C16A21F00F01C162016BE5
:102B60000A4A1140016300218160FFF7D7FC034945
:102B70004FF000608039086010BD000088ED00E073
:102B8000001002400CC07FF8FFFFF6FECCFC00FFF7
:102B90001220FEF78DBA10B5FFF70AFDFFF742FDD0
:102BA00000F024F8BDE8104000F00CB8044A0028FA
:102BB0004FF48041104601D0FEF761BBFEF761BBC8
:102BC0000010004806480549022201600A72064AC0
:102BD0000449C0E90112086800470000B80200205B
:102BE0003C010020A8000020FC00002038B54FF474
:102BF000A060FEF7DDFF14208DF8000002208DF8A4
:102C0000010000258DF8025001248DF8034068462C
:102C1000FEF79CFF2A208DF800008DF801408DF80A
:102C200003406846FEF792FF06208DF800008DF8FD
:102C300001506846FEF78AFF38BD00002DE9F041DB
:102C40004A4E88B000243068494D68806988494FF1
:102C500038880140890506D54FF6FF513160297843
:102C600001F101012970698801EA0001080401D518
:102C7000FDF706FD688839884FF6FF3808404005A3
:102C800004D5C6F800803C48406880476988388889
:102C90000140890402D54DF6FF7131606988014019
:102CA000C80405D54EF6FF7030600020FFF7DCF950
:102CB00068883988084000050BD53048007810B185
:102CC000FFF774FE02E00220FFF7CEF94FF2FF702B
:102CD0003060688839880840C00543D54FF6FF60EA
:102CE00030602248001D00684FF00002000435D516
:102CF0006868401C68606868032830D91B48001F5A
:102D0000016809072BD4016889B2A96017494FEA05
:102D10000D03443951F82470BFB243F82470641C89
:102D2000082CF7D3AC6844F00104AC60AC68A4B2E2
:102D30000460AC6824F00104AC60AC68A4B2046028
:102D400030684005FCD5C6F80080002053F82040CC
:102D5000A4B241F82040401C0828F7D36A6007203D
:102D6000FFF782F908B0BDE8F0810000445C004044
:102D70004800002048010020A80000202401002075
:102D8000FFF75CBF05490020086005494FF43F404C
:102D900008800249091F086000207047445C004019
:102DA00048010020FEE70000084B10B5521C5208F5
:102DB00003EB410108D003784478801C43EA0423E4
:102DC00021F8043B521EF6D110BD00000060004007
:102DD000114910B50A68212802D0202807D018E030
:102DE000107800F07F00212813D10C490AE01078F8
:102DF000202300F07F010A48212901D0037008E058
:102E00000849037029B10020916150828847002051
:102E100010BD022010BD00003C010020412E000822
:102E20008C000020B52F00080149FFF7C3BC00004B
:102E3000A00000200149FFF7BDBC00009800002061
:102E400008B1044870470449082009680882002036
:102E500070470000900000203C01002005490968EF
:102E6000C978042901D900207047034A02EBC10147
:102E7000FFF7A0BC3C010020D800002009B90128C0
:102E800001D90220704700207047000007490968F7
:102E9000097801F07F01212903D1022803D02228DB
:102EA00001D0022070470020704700003C01002044
:102EB000334810B50068334A00218172D2794272DA
:102EC000C1720846FFF758FA4FF400710020FFF76F
:102ED00019FB10210020FFF7EDFA40210020FFF739
:102EE00073FA80210020FFF7C7FA0020FDF794FC59
:102EF000254890F82C100020FFF776FA0020FFF705
:102F0000ABFA00210120FFF7FDFAC0210120FFF7F5
:102F1000B3FA20210120FFF7CDFA00210120FFF7AD
:102F200083FA4FF4C0610220FFF7ECFA4FF480718E
:102F30000220FFF7A1FA00210220FFF775FA2021F5
:102F40000220FFF7B7FA00210320FFF7DBFA4FF466
:102F500088710320FFF738FA40210320FFF744FA75
:102F60004FF440510320FFF75FFA00210320FFF7E1
:102F7000A1FA0020FFF708FA04490120086010BDFB
:102F80003C01002076310008A8000020200100202C
:102F90000348807A002802D0024905200860704763
:102FA000B802002020010020014904200860704779
:102FB0002001002008B1044870470449082009682E
:102FC0000882002070470000900000203C01002093
:102FD00003480178202901D10021017070470000C9
:102FE0008C0000207047000010B5FEF77BF9054803
:102FF000002400688472FEF7A7FEFFF7C3FE0248B4
:10300000046010BD3C0100202001002002E008C83F
:10301000121F08C1002AFAD170477047002001E052
:1030200001C1121F002AFBD1704700000020FFF7EA
:10303000F9F80120FFF7F6F80220FFF7F3F8032074
:10304000FFF7F0F80420FFF7EDF80520FFF7EAF8A6
:103050000620FFF7E7F80720FFF7E4F8012100203A
:10306000FFF728F9FFF797FD384D0024AC606C702E
:10307000FDF7F5FDFDF73EFF0120FFF7F7F8002013
:10308000FFF7F4F80320FFF7F1F80420FFF7EEF85C
:103090000720FFF7EBF80520FFF7E8F80620FFF719
:1030A000E5F80220FFF7E2F82948FEF7AFFE2848CE
:1030B0004FF4FA664068B0FBF6F0401EB0F1807F36
:1030C00008D24FF0E0214861224AF02010708C6154
:1030D00007200861FDF7FAF80520FFF7D3F806206E
:1030E000FFF7C4F801202870B1461B4FDFF86C8051
:1030F0001B4E82464FF0140B38680528FCD1FDF7B3
:103100009BFA30680028F7D0286901281CD198F86C
:103110000000462809D10520FFF7A8F80620FFF790
:10312000B1F82C70C5F80C906C7098F8000053281A
:103130000AD10520FFF7A6F80620FFF797F885F8D3
:1031400000A0C5F80CB06C703460D5E70800002012
:103150000802002023ED00E020010020A40100204F
:103160004400002012010002020000408304405786
:1031700000020102030109024300020100C03209FA
:1031800004000001020201000524001001052401D1
:103190000001042402020524060001070582030839
:1031A00000FF09040100020A0000000705030240B5
:1031B00000000705810240000004030904140344D1
:1031C00000410045005300200055005200460055C4
:1031D000003803530065006D0065006E0065006EE9
:1031E000006B006F0020004100700072006F0073E0
:1031F0000069006E005400610076006C0069006E8A
:1032000000740073006500760000000000000600F6
:103210000100000000000200000200010004008024
:1032200000080040001000200000200000002000E6
:10323000000020000000200000002000000020000E
:10324000000020000000200068320008000000207C
:10325000A4010000E401000810330008A4010020CC
:10326000340500001C30000881B201DA1410290C6A
:10327000141A03531254124D123302213213051043
:103280000C1C08491B040A111124512AC26E120891
:103290001364313308121A7608324313E92F1408E5
:1032A000B12E1B08D1081AE50413D12D1B088D106F
:1032B0001A7D041A35041A29041A5D044132401A91
:1032C000B93832041ABD0829D01AD1083238222858
:1032D00033201A1A046729741A914C0916A41AA9E2
:1032E0001C412992012A2D01020304042D0607081E
:1032F000093C120212041A0649120A120C12101A80
:10330000209E4A80531A480F091E042122A0000063
:040000050800018965
:00000001FF
