:020000040800F2
:10000000A80600209D0100088F1B0008611300084E
:100010008D1B0008DD070008392D000800000000D6
:100020000000000000000000000000009123000814
:100030008D0C000800000000491D00088D2A0008F2
:10004000B7010008B7010008B7010008B7010008B0
:10005000B7010008B701000889100008B7010008BF
:10006000B7010008B7010008B7010008B701000890
:10007000B7010008B7010008B7010008B701000880
:10008000B7010008B7010008B7010008B701000870
:10009000152D0008B7010008B7010008B7010008D6
:1000A000B7010008B7010008B7010008B701000850
:1000B000B7010008B7010008B7010008B701000840
:1000C000B7010008B7010008B7010008B701000830
:1000D000B7010008B7010008B7010008B701000820
:1000E000B7010008B7010008252B0008B701000878
:1000F000B7010008B7010008B7010008B701000800
:10010000000000000000000000000000B70100082F
:10011000B7010008B7010008B7010008B7010008DF
:10012000B7010008B7010008B7010008B7010008CF
:10013000B7010008B701000800000000000000003F
:10014000B7010008B7010008B7010008000000006F
:10015000000000000000000000000000000000009F
:100160000000000000000000B7010008B70100080F
:10017000B7010008000000000000000000000000BF
:1001800000000000B7010008DFF80CD000F0D6FA3C
:100190000048004711370008A8060020064880479D
:1001A00006480047FEE7FEE7FEE7FEE7FEE7FEE75C
:1001B000FEE7FEE7FEE7FEE7A12A00088901000846
:1001C0002DE9FE4F804681EA0300C00F0C460090E7
:1001D00021F0004123F00045B8EB0200A94105D20F
:1001E0004046214690461C460B46024623F00040FE
:1001F000104304D14046214603B0BDE8F08F270DDF
:10020000C7F30A00C3F30A510290401A0190402834
:1002100066DAC3F3130040F4801B0098924620B1C5
:100220000023D2EB030A63EB0B0B01985946C0F194
:100230004002504600F07BF906460D4650465946AE
:10024000019A00F083F910EB08006141002487EA6D
:10025000115284EAE7731A433BD0009A3AB3019AE9
:10026000012A4FEA075210DC001B61EB02014FF03C
:10027000004202EA0752CDE90042001C41F580111C
:1002800032462B4600F0B7F9B6E7001B61EB0201DE
:10029000001C41F5801300185B412018A2F50017DF
:1002A00047EB030140EAD570B6196D4111E06D08C6
:1002B0004FEA360645EAC0754FEA0752001B61EB6C
:1002C0000201001C41F5801149084FEA3000001975
:1002D000514132462B4603B0BDE8F04F00F07EB9E5
:1002E0000098012240000023D0EB020263EBE07390
:1002F000009821464FEAE074B8EB000061EB04017E
:10030000E9E783F000435BE781F0004158E72DE91E
:10031000FE4F81EA030404F0004421F00041009400
:100320004FF0000B23F0004350EA010402D052EAE0
:10033000030404D10020014603B0BDE8F08FC3F3ED
:100340000A54C1F30A552C44A4F2F3340194A0FBDF
:100350000254C1F3130141F48011C3F3130343F4B6
:10036000801301FB024400FB034E840A970A44EA0F
:10037000815447EA8357A4FB076802958D0A05FB61
:1003800007854FEA932C04FB0C542705029D4FEA86
:10039000065847EA1637B5EB08056EEB070C870ED3
:1003A000920E47EA811742EA8312A7FB0201B6EBDD
:1003B0000B0164EB00042B0D43EA0C335E1844EB95
:1003C0001C50DA465146E7FB0201C5F313044FEA1D
:1003D0000B3343EA14534FEA0432019C43EA060309
:1003E000A4F10C040294009CCDE900B400F003F9E0
:1003F000A2E72DE9F04D81EA030404F0004B21F05F
:10040000004514464FF0000A23F0004150EA05026F
:1004100020D054EA01021DD0C5F30A570246C5F3A5
:100420001303C1F31300C1F30A5640F4801543F4DB
:100430008013A7EB0608101BD64608F2FD3873EBB5
:10044000050002D308F1010801E092185B41B8F100
:10045000000F03DA00200146BDE8F08D00204FF4C4
:100460008011064684460EE0171B73EB050705D383
:10047000121B63EB050306434CEA010C49084FEAE3
:10048000300092185B4150EA0107EDD152EA0300B7
:1004900012D082EA040083EA0501084303D1002256
:1004A0004FF0004308E0101BAB4102D201220023B1
:1004B00002E06FF0010253101AEB06004CEB0851FA
:1004C00010EB0A0041EB0B01BDE8F04D00F086B8DF
:1004D00000F0004230F000400AD0C10D01F560711B
:1004E000C0F3160042EA0151C208400711437047A9
:1004F00000200146704701F0004330B421F0004174
:1005000050EA010206D00A0DA2F56072C1F3130190
:10051000002A02DC30BC00207047440F44EAC104CA
:10052000C100E01830BC00EBC25000F021B8202A16
:1005300004DB203A00FA02F1002070479140C2F13A
:10054000200320FA03F3194390407047202A06DB6A
:10055000CB17203A41FA02F043EAE07306E041FA91
:1005600002F3D040C2F1200291400843194670477F
:100570000029A8BF7047401C490008BF20F00100B7
:10058000704710B4B0FA80FC00FA0CF050EA010495
:1005900004BF10BC704749B1CCF1200421FA04F427
:1005A00011FA0CF118BF012121430843A3EB0C0100
:1005B000CB1D0106000A002BBEBF002010BC7047F7
:1005C00000EBC35010440029A4BF10BC7047401C6E
:1005D000490008BF20F0010010BC704710B5002B87
:1005E00008DA401C41F1000192185B411A4301D125
:1005F00020F0010010BD2DE9F04D92469B4611B14F
:10060000B1FA81F202E0B0FA80F220329046FFF7B0
:100610008EFF04460F4640EA0A0041EA0B015346AA
:100620005A46084303D120463946BDE8F08D1146AD
:1006300053EA010015D0C8F14002504600F090F88E
:1006400005460E46504659464246FFF770FF08439E
:1006500001D0012000E00020054346EAE0762C436B
:1006600037430A984FEA4453A0EB08004FEAD424DA
:100670000A304FF0000244EA47544FEAD72502D52A
:1006800000200146D1E7010510196941DDE908455F
:1006900000196941BDE8F04DA0E72DE9F04D0023B8
:1006A0001A461B1A8A4103DB00200146BDE8F08D83
:1006B000C1F30A52C1F3130141F480154FF0000B4E
:1006C000D10702D100186D41521E0027044640F2A6
:1006D000FF11384601EB620A3E4680460246002082
:1006E0004FF4801100F03CF8C2197141BB1846EB81
:1006F0000100B4EB030C75EB000C04D3E41A65EBBA
:10070000000517460E46241908F101006D41804688
:100710003428E3DDF91946EB0600091BA84103D292
:100720004FF0FF32134601E0002213461BEB070097
:1007300046EB0A51BDE8F04DFFF750BF064C074DA0
:1007400006E0E06840F0010394E8070098471034A1
:10075000AC42F6D3FFF71CFD104100083041000801
:10076000202A04DB203A21FA02F00021704721FA06
:1007700002F3D040C2F1200291400843194670476D
:1007800070B501EB020410F8015B15F0070301D10D
:1007900010F8013B2A1106D110F8012B03E010F8E4
:1007A000016B01F8016B5B1EF9D12B0705D4002307
:1007B000521E0FD401F8013BFAE710F8013B02F199
:1007C0000202A1EB030303E013F8015B01F8015BF4
:1007D000521EF9D5A142D6D3002070BDFEE7C1B2AA
:1007E000000A40EA012070472DE9F84F0020ADF8DB
:1007F0000000DFF830A14BF6BF7648F28007484D85
:1008000040F68F78474C48F60F7BDFF81C910AF1D1
:10081000440A2DE0018811F00F0244490A7030D0DB
:1008200004EB82000168ADF80010BDF80010090467
:100830000BD53E49026802EA080202603C4A087889
:1008400002EB800050F8040C8047BDF80000000661
:100850000ED53649087804EB8002106800EA0B00D8
:1008600010603448097800EB810050F8040C804790
:10087000DAF800104846A9F800100904CAD4BDE807
:10088000F88F21682980298801F030016980298842
:1008900001F4405129802168314081F4005181F0F8
:1008A0002001394321600088C006206815D400EA81
:1008B0000B00206000F0AEFD26E02988890401D5F8
:1008C00080F400506988C90626D46988890601D554
:1008D00080F0200038432060D1E7ADF80000BDF87B
:1008E0000000000506D5206800EA0800206001F03D
:1008F000B5FE09E0BDF800000004B9D5206800EAA3
:100900000800206001F0ECF9206829883040C90413
:10091000D3D580F48050D0E780F01000D5E70000F8
:100920006E010020005C00406E0000205C01002091
:100930009400002078000020074901EB8000016846
:10094000490407D5016848F68F7211404CF28002C5
:100950001143016070470000005C0040074901EB53
:1009600080000168490607D5016848F68F7211407A
:1009700048F2C0021143016070470000005C004073
:10098000054901EB8001086848F68F62104048F283
:100990008002104308607047005C00402DE9F0477A
:1009A000DFF89480254F4FF03009D8F8001001F19E
:1009B0001005088A0E7A08B9042E04D0AC88A0422B
:1009C00015D8042614E01E480178012903D0072613
:1009D000102038802BE01B4A002112681A4B92B27B
:1009E00003EB42025160A7F8009001701FE002265D
:1009F000844200D90446A9682046884782460020E0
:100A000000F086FC01462246504602F097F9214646
:100A1000002001F063FD2888001B2880688820449E
:100A20006880A7F8009009494FF440500880D8F832
:100A300000000672BDE8F087600100207001002010
:100A400058010020505C0040006000406E01002012
:100A50002DE9F047224EDFF88C803027356835F8D5
:100A6000100FA968A9B100B3AC88844200D904462C
:100A70002046884781462888001B288068882044B3
:100A80006880002000F024FC01462246484601F020
:100A90004BF9288848B114494FF440500880002190
:100AA000084601F01BFDA8F800702888A988884234
:100AB00001D3032001E020B1052031680872BDE8B0
:100AC000F087316806200872084900200968084A42
:100AD00089B202EB41014860A8F80070EFE700001E
:100AE00060010020700100206E010020505C004079
:100AF00000600040F8B55C4C5C4D0926206800277A
:100B000029684278062A05D0AAB1082A4BD00A2AB9
:100B10004ED069E00278520666D18078012804D070
:100B2000022804D0032804D05EE0C96954E0096AB1
:100B300052E0496A50E04288A2BBC288022A53D1DF
:100B400002797ABB0278530601D1838833B102F06F
:100B50007F02012A04D0022A0CD045E044493BE040
:100B60008A69407900219047E0B92068807A00289E
:100B7000F4D139E0417901F00F0001F070020B0669
:100B80003C4951F8201003D5C1F30111090102E0DD
:100B9000C1F301310903384B1B78834224D90AB9C8
:100BA0000029DBD120E0007840061DD1334913E055
:100BB000027802F07F02012A16D1827AA2B142881D
:100BC00092B9027982B9C288012A0DD18A69407925
:100BD0000021904740B92A4931B12068478281619C
:100BE00000208847002006E02968206809694078CD
:100BF0008847032807D021680A8AA2F57F43FF3B74
:100C000004D10E72F8BD20680672F8BD022809D022
:100C100042B10878000621D5C8880090824205D9E3
:100C2000088213E04FF008000872F8BD0ED2286861
:100C3000144B90F82C00824201D21F7006E0B2FBE8
:100C4000F0F400FB142008B901201870286890F80F
:100C50002C008882BDE8F840FFF7A0BE0320087290
:100C6000094900030880F8BD6001002064010020EC
:100C70001D280008005C00401C010020B12700086E
:100C8000F5270008580100206E0100207047000081
:100C900001B503480099416041680029FCD108BDB5
:100CA000080000201FB500248DF8084014208DF89E
:100CB0000900E0208DF80B008DF80A4002A800F032
:100CC00035FE8DF8004040208DF8010007208DF89A
:100CD00002008DF8064008208DF804408DF80300CE
:100CE0008DF80540684600F06FFD80208DF80C00FF
:100CF00010208DF80D008DF80E408DF80F4003A8E0
:100D000000F044FD1FBD000070B506462DED028BBE
:100D100086B00024B7EE008A02236A4623213220DF
:100D200000F034FE062301AA2821322000F02EFE16
:100D30009DF80120500601D5402100E010219DF8CA
:100D4000000003AD430601A801D5520610D500EB03
:100D5000440310F814205B781B0202FA83F292FB22
:100D6000F1F225F81420641CE4B2032CEFD30FE059
:100D700000EB440210F8143052781B0202FA83F29E
:100D800092FBF1F225F81420641CE4B2032CEFD39B
:100D900002236A462321322000F0F8FD9DF801006D
:100DA000B5EE000A40060ED49DF8000010F03000A9
:100DB0000ED0102804D0202805D0302808D105E016
:100DC000B6EE008A04E0B0EE408A01E09FED0B8AA7
:100DD0005FF0000135F9110000EE100A06EB81000A
:100DE000491CB8EEC00AC9B20329C0EE080AC0ED1A
:100DF000000AEFD306B0BDEC028B70BD9FCDAA3DBB
:100E00002DE9F843804600208DF80000044607468F
:100E1000064601236A4619463C2000F0B7FD01232F
:100E2000454A03213C2000F0B1FD434D01236A1CDB
:100E300004213C2000F0AAFD0123AA1C07213C202C
:100E400000F0A4FD0123EA1C08213C2000F09EFDD7
:100E500001232A1D05213C2000F098FD01236A1D75
:100E600006213C2000F092FD9DF8000000F0E0011A
:100E70004FF4C87080291DD006DC20290BD04029F2
:100E80000ED0602925D110E0A02917D0C02919D093
:100E9000E0291ED11BE040F24C444FF4757718E076
:100EA00040F257344FF43E7713E040F29E244FF463
:100EB00016770EE04FF4E17407460AE0044640F26C
:100EC000631706E04FF4A57440F2271701E0E6240B
:100ED000CD2705EB460015F81610407800EB0120F1
:100EE0004FF47A7110FB01F000EE100A08EB860057
:100EF000761CF8EEC00A00EE104AF6B2022EB8EEEA
:100F0000400A80EE801A80ED001AE2D368792979D0
:100F100000EB01204FF47A7110FB01F000EE100A93
:100F2000F8EEC00A00EE107AB8EE400A80EE801AA1
:100F300088ED021ABDE8F8833C0000203EB5082089
:100F400000248DF800008DF8014007208DF8020084
:100F500030208DF803008DF804408DF805401020F6
:100F60008DF80600684600F0CCFA8DF808408DF840
:100F7000094002A800F0ACFA102000F095FA3EBD3E
:100F800070B505462DED028B86B0002000900190D3
:100F9000029003908DF8100004469FED288A0122EC
:100FA000232104A800F076FB06222821684600F0E1
:100FB00071FB9DF8101068464B0602AA0DD400BFC5
:100FC00000EB440610F81430767803EB062322F881
:100FD0001430641C032CF3DB0BE000EB440310F82B
:100FE00014605B7803EB062322F81430641C032C96
:100FF000F3DB11F0300004D0102805D0202808D1F0
:1010000005E09FED0F8A04E09FED0E8A01E09FED61
:101010000E8A002132F9110000EE100A05EB810062
:10102000491CB8EEC00A0329C0EE080AC0ED000A48
:10103000F0DB06B0BDEC028B70BD000000000000CC
:10104000EC91E442549264425C8F64410149012076
:101050000860704744000020084910B5012008606E
:10106000032000F045F9064902460860BDE810403B
:101070004FF48871034800F057BE0000480000207C
:1010800068000020CC01002070B5002000F040F87E
:10109000012829D1002001F023F9002824D0134C85
:1010A00000262660124D02E02068401C2060206867
:1010B000A842F9D3002001F013F90028FAD12660E4
:1010C00002E02068401C20602068A842F9D309484B
:1010D0000168491C01600168022900D90660BDE869
:1010E0007040002000F008B870BD000054010020DE
:1010F000FFFF07001000002000F01F0201219140B7
:10110000024A20F01F008150704700001404014083
:1011100001460A4B10B521F01F020020D35801F000
:101120001F040121A140054C0B40143412590A42FE
:1011300002D0002B00D0012010BD000000040140AF
:10114000F0B50468354B04F01F028579012101FADE
:1011500002F224F01F041C44002D59D02568954349
:10116000256002681C1D22F01F052C44256802F032
:101170001F0201FA02F2954325600468027924F007
:101180001F051D442A44156804F01F0401FA04F4E5
:10119000254315600568214C25F01F0208342244C0
:1011A000166805F01F0501FA05F5AE4316600668DE
:1011B000221D26F01F0515442F6806F01F0C01FAAA
:1011C0000CF6B7432F604579102D0BD0026822F042
:1011D0001F0018442844036802F01F0291400B438B
:1011E0000360F0BD056825F01F0323441C6805F06B
:1011F0001F0501FA05F52C431C60006820F01F0351
:101200001A44136800F01F0081400B431360F0BDC7
:1012100000792044016891430160F0BD0004014061
:10122000F0B50022012503240E6805FA02F31E40E2
:101230009E422DD10E79012E01D0022E13D1876846
:10124000560004FA06FC27EA0C0787604F79B7407E
:1012500086683743876086889E43868086888B7938
:1012600093401E4386800768560004FA06F39F43A6
:1012700007600F79D0F800C0B74047EA0C07076055
:10128000C7689F43C760CB79B340C6683343C36028
:10129000521C102AC8D3F0BD4B07DB0E9A40C90878
:1012A00010B500EB8100016A0F249C40A14301624C
:1012B000016A1143016210BD02460020128A0A42EF
:1012C00000D00120704701857047816170470000A0
:1012D0000549096889B201EBC000044901EB4000EF
:1012E000008980B270470000505C00400060004000
:1012F0000549096889B201EBC000044901EB4000CF
:101300008089C0F309007047505C004000600040D5
:101310000449096889B201EBC000034931F81000A3
:1013200080B27047505C0040006000400A4810B531
:101330000168001D0468001D006808180BD0082211
:10134000064900F095F8054920460422BDE8104002
:10135000103100F08DB810BDACF7FF1F4E0000201B
:10136000FEE7C16170470029016802D041F0010128
:1013700001E021F0010101607047024600209269FE
:101380000A4200D00120704710B5026822F0010225
:1013900002600268124B1A40D1E9013442EA042289
:1013A000134303600A6822F070620261026842F02F
:1013B0000102026000228260C2600B698A691A43DE
:1013C0008260826842F400428260CA680368134304
:1013D00003604268034B49691A401143416010BDE4
:1013E000FFE0CF00FF7FFF07406AC0B27047816215
:1013F0007047000070B54468049DC1F30901044EB4
:1014000041EA02411943344029432143416070BD00
:10141000009800FC10B5134C2068017A022904D012
:10142000042902D0062905D015E0FFF7B7FA206895
:10143000007A11E04178052909D10178490606D1E1
:10144000C07800F0C3FF08480068006A804707487A
:10145000006880688047082021680872BDE8104055
:1014600000F074BC600100206801002064010020CD
:10147000F0B500230A24302537261F4611E000BFAF
:10148000B4EB107F02D905EB107C01E006EB107C79
:1014900001F813C001EB430C00015B1C8CF80170D8
:1014A000DBB29342ECD3F0BD38B5044601222421CF
:1014B000684600F0EFF89DF80000012200F0EF0010
:1014C00020438DF800002421684600F03DF938BD26
:1014D00038B5044601222121684600F0DBF89DF86A
:1014E000000000F0C0018DF80010207862781043F1
:1014F00008438DF8000001222121684600F024F9FC
:1015000038BD1CB5044600208DF800008DF804009D
:1015100000F022F820786178E2780843A17811433E
:1015200008439DF800109DF8042008438DF8000042
:10153000207961790843A179114308438DF80400AB
:1015400001222021684600F0FFF80122232101A892
:1015500000F0FAF81CBD00002DE9F04101210F0355
:1015600088B0384600F04EFC0121480400F026FC0B
:1015700001214C05204600F021FC0121204600F00D
:101580001DFC0121204600F019FC05224FF0904877
:1015900011464046FFF780FE052206214046FFF730
:1015A0007BFE052207214046FFF776FE02268DF8D6
:1015B000046000248DF8064020208DF807400325A4
:1015C00000908DF8055069464046FFF729FE8020BF
:1015D000009069464046FFF723FE40200090694690
:1015E0004046FFF71DFEDFF8A480404600F0B4FD42
:1015F0004FF4E060ADF80C00ADF810403002ADF8EB
:1016000012001020ADF814000720ADF81800ADF856
:1016100008404FF48270ADF80A00ADF80E40ADF806
:10162000164002A9404600F0C8FD3946404600F089
:1016300003FE0121404600F085FD012708208DF8BA
:101640000470DFF84C8000908DF806408DF805504E
:1016500069464046FFF7E4FD08214046FFF735FEA6
:101660008DF804408DF806408DF8055000978DF8F0
:10167000074069464046FFF7D3FD6946404600965D
:10168000FFF7CEFD08B0BDE8F0810000003001405A
:10169000001000482DE9F04114460546012A02D900
:1016A00041F0C00601E041F080060C4F08213846A9
:1016B000FFF709FE304600F013F806E0002000F0C6
:1016C0000FF8641E05F8010BA4B2002CF6D13846C1
:1016D000BDE8F0410821FFF7F8BD00000010004808
:1016E0002DE9F041154C4FF4805607462660144D05
:1016F00003E02068411E2160D0B10221284600F09D
:1017000055FD0028F5D03946284600F09DFD26609D
:1017100003E02168481E206051B10121284600F0F5
:1017200045FD0028F5D02846BDE8F04100F082BD17
:1017300000F008F8C0B2BDE8F0810000C001002050
:1017400000300140002070472DE9F0411446054665
:101750000E46012A01D941F040060B4F08213846B8
:10176000FFF7B1FD3046FFF7BBFF05E02878FFF734
:10177000B7FF641EA4B26D1C002CF7D13846BDE83B
:10178000F0410821FFF7A1BD0010004838B504461C
:1017900001236A462121322000F0F8F89DF800006C
:1017A00000F00C008DF8000021786278E378114396
:1017B000A2781A43114301438DF800106A46212193
:1017C000322000F063F938BD1CB5044600208DF8C6
:1017D00000008DF8040000F021F8207861789DF871
:1017E00000200843A178114308438DF800002079B8
:1017F0006179E2780843A179114308439DF8041008
:101800006A4608438DF804002021322000F03EF99A
:1018100001AA2321322000F039F91CBDF0B50121C5
:101820004C058BB0204600F0D5FA0121880400F069
:10183000C5FA0121204600F0C1FA0121204600F03E
:10184000BDFA0121204600F0B9FA344F04220621E6
:101850003846FFF721FD042207213846FFF71CFD1B
:1018600002258DF8045000248DF8064040208DF8A4
:101870000750032600908DF8056069463846FFF74B
:10188000CFFC8020009069463846FFF7C9FC8DF8F0
:1018900004408DF806400420214F8DF80740009049
:1018A0008DF8056069463846FFF7BAFC022104202E
:1018B00000F070FD8DF8284008208DF829000120E7
:1018C0008DF82A00099509A8FFF73AFC07941548F6
:1018D000154D0394029005940494069402A908946B
:1018E0002846FFF751FD01212846FFF73CFD8DF802
:1018F000044010208DF8064000908DF805608DF8AA
:10190000074069463846FFF78BFC20200090694667
:101910003846FFF785FC0BB0F0BD0000000400481E
:101920000010004825209000005400403EB50446B9
:1019300000208DF800008DF804008DF80800FFF7F6
:101940006DFF207861786A4608439DF800100843CF
:101950008DF80000E0789DF8041008438DF804002D
:10196000A0789DF8081008438DF8080000213C205D
:1019700000F08CF801AA01213C2000F087F802AAAF
:1019800002213C2000F082F83EBD00002DE9F84F16
:101990003B4C4FF420451E4690460F46834625603B
:1019A0004FF4004ADFF8DC9004E02068411E21601B
:1019B000002854D051464846FFF7DFFC0028F4D1F8
:1019C0004FF4005000900023012259464846FFF78B
:1019D00011FD256003E02068411E2160D0B3022183
:1019E0004846FFF7CAFC0028F5D0012E01D947F080
:1019F000800739464F464846FFF7F9FC256003E06B
:101A00002068411E216028B340213846FFF7B5FC0D
:101A10000028F5D04FF410500090F2B24FF0007350
:101A200059463846FFF7E6FC10E02068411E216069
:101A300080B104213846FFF7A0FC0028F5D03846D5
:101A4000FFF7D2FC761E08F8010BB6B22560002E17
:101A5000EFD109E003E02168481E206021B900F0C1
:101A600013F880B2BDE8F88F20213846FFF785FCD7
:101A70000028F0D020213846FFF773FC0020F1E762
:101A8000C401002000540040002070472DE9F84FA9
:101A9000354C4FF4204617468A46814626604FF45F
:101AA0000048324D04E02068411E2160002857D0D4
:101AB00041462846FFF761FC0028F4D14FF400505E
:101AC000C3020090012249462846FFF793FC266096
:101AD00003E02068411E216080B302212846FFF701
:101AE0004CFC0028F5D051462846FFF780FC2660C4
:101AF00003E02068411E216000B380212846FFF7E3
:101B00003CFC0028F5D0002000904FF0007301222B
:101B100049462846FFF76EFC266003E02068411E18
:101B2000216058B102212846FFF727FC0028F5D094
:101B300039782846FFF75BFC266004E010E0216856
:101B4000481E206061B120212846FFF716FC0028BE
:101B5000F5D020212846FFF704FC0020BDE8F88FCF
:101B6000FFF792FF80B2F9E7C40100200054004063
:101B70000448817A044809B1052100E0012101608F
:101B800000F08EBF8C02002044010020FEE7704769
:101B900070470000F0B50F21C478027801234FF0A0
:101BA000E026DCB1124C2468457804F4E064C4F506
:101BB000E064240AC4F10407E1408478BD400C408D
:101BC0002C4321010B4C1155007800F01F018B4074
:101BD000400906EB8000C0F80031F0BD02F01F00A4
:101BE0008340500906EB8000C0F88031F0BD000052
:101BF0000CED00E000E400E00249084302490860FF
:101C0000704700000000FA050CED00E070B52F4DA4
:101C10002868017844784A0606D001F07F00012840
:101C200028D002282BD035E0092C06D0052C07D06F
:101C3000032C0ED0012C14D02CE000F037FE28E04D
:101C4000C1787F292ED8817861BB818851BB807A89
:101C500027E0C17801291DD18088D8B900F042FE63
:101C600017E0C178012915D1818899B9407A800699
:101C70000AD40FE00B2C0DD100F086FE09E0012CF8
:101C800002D0032C03D005E000F01CFD01E000F0C1
:101C90003BFE58B10E492046096849698847032828
:101CA00002D018B108200DE009200BE0094A0620F7
:101CB00000211268084B92B203EB42025160074ABE
:101CC000302111802968087270BD00006001002079
:101CD00064010020505C0040006000407001002062
:101CE00010B50F4C2068007A022811D004280FD0BC
:101CF000032804D0052802D0072805D008E0FEF705
:101D0000A7FE2068007A04E006480068C0688047A3
:101D1000082021680872BDE8104000F017B80000E4
:101D20006001002064010020064B521C520803EBA6
:101D3000410105D031F8043B20F8023B521EF9D195
:101D40007047000000600040704700000C4810B56C
:101D500090F82C10002000F069FB0A480068007A17
:101D6000082802D0092809D006E007494FF480501E
:101D70000880064910200880002010BD012010BDF9
:101D8000CC000020600100206E01002070010020C6
:101D900010B5012000F0D4FE0648012101600021A9
:101DA000054A0160031D19604FF4E0511180016084
:101DB000002010BD405C00406C010020044A002956
:101DC000516901D0014300E0814351617047000037
:101DD00000100240044A0029D16901D0014300E00B
:101DE0008143D1617047000000100240044A00297D
:101DF000116901D0014300E0814311617047000087
:101E000000100240044A0029916901D0014300E01A
:101E1000814391617047000000100240044A00298C
:101E2000D16801D0014300E08143D16070470000D8
:101E3000001002402DE9F04F8E4900224B688E4C75
:101E400013F00C0303D0042B01D0082B01D0046045
:101E500012E04A684B6802F470124FF0020513F466
:101E6000803F05EB92423AD0CB6A03F00F035B1C34
:101E7000B4FBF3F35A4302608A46884649680F234D
:101E8000DFF8F89103EA111119F80170016821FADD
:101E900007F34360D8F80450072606EA152519F819
:101EA000055023FA05F58560D8F804C006EADC265B
:101EB00019F8066023FA06F3C360D8F82C809C4614
:101EC0004FF01F0B0BEA181309F1100E3EF81330F8
:101ED0005FEAC36806D5B2FBF3F3036103E0684B26
:101EE0005A43C8E70161DAF82C80D1460BEA58233F
:101EF0003EF813305FEAC36803D5B2FBF3F34361E6
:101F000000E04161D9F830804B465FEAC86801D4EF
:101F1000846100E08161D3F830805FEA886801D491
:101F2000C46100E0C161D3F830805FEAC85808D5C9
:101F3000914206D1BE4204D14FEA4208C0F8208047
:101F400001E0C0F820C0D3F830805FEA885806D599
:101F5000914204D1BE4202D15200426201E0C0F877
:101F600024C01A6B96074FF400420ED01E6B06F089
:101F70000306012E0CD01E6B06F00306022E09D0BC
:101F80001E6BF643B60707D007E0C0F828C004E090
:101F9000816202E0826200E084621E6B16F4403FC0
:101FA0000FD01E6BC6F30146012E0CD01E6BC6F37C
:101FB0000146022E09D01E6BC6F30146032E06D041
:101FC00006E0C56204E0C16202E0C26200E0C462F1
:101FD0001E6B16F4402F0FD01E6BC6F38146012EE8
:101FE0000CD01E6BC6F38146022E09D01E6BC6F3C1
:101FF0008146032E06D006E0056304E0016302E09B
:10200000026300E004631E6B16F4401F0FD01E6BCA
:10201000C6F30156012E0CD01E6BC6F30156022EDC
:1020200009D01E6BC6F30156032E06D006E04563A9
:1020300004E0416302E0426300E044631E6B16F477
:10204000400F11D01D6BC5F38155012D0ED0196BBA
:10205000C1F3815102290BD0196BC1F381510329BE
:1020600000D18463BDE8F08F8563FBE78163F9E706
:102070008263F7E70010024000127A00720100202C
:1020800000093D000149086070470000D800424245
:102090002DE9F041214C072800D0207022781F4DF7
:1020A0000626052104271E48062A0BD2DFE802F087
:1020B000030C11161E27686810B12170BDE8F0816D
:1020C00000F030F82670F9E700F02CF827700120B6
:1020D00022E00220607003202070EFE76078401E4D
:1020E000607060780028E9D12770E7E7026892B253
:1020F00042F01002026021700A206070DEE7617811
:10210000491E617061780029D8D1016889B221F037
:1021100010010160267000206860CFE74C010020AC
:10212000405C004010B5064C206880B220F00400EE
:102130002060FFF71DFD4FF43F40206010BD000000
:10214000405C00400029018802D041F0400101E0DC
:1021500021F0400101807047114910B588420AD131
:10216000841401212046FFF759FE2046BDE81040A7
:102170000021FFF753BE0B49884202D1012104140C
:1021800004E0094988420AD10121C4132046FFF71F
:102190002DFE2046BDE810400021FFF727BE10BDF0
:1021A0000030014000380040003C00400246002062
:1021B00012890A4200D00120704730B54A88B2F532
:1021C000827F1ED0828822F470638A881A438280BC
:1021D00002880C8902F44153CA888D8922434C89B4
:1021E0002C43CD892C4322430C884D882C43224319
:1021F0001A430280828B22F400628283098A018260
:1022000030BD02880C8902F44153CA888D8922436B
:102210004C892C43CD892C4322430C8844F482748E
:1022200022431A430280828822F470638A881A4308
:102230008280DFE7007B7047828822F480528280B0
:1022400082880A4382807047017370471CB5044638
:102250000E48012150F82400FFF7B0FD0B48002183
:10226000103830F81400009001208DF804008DF82B
:1022700006108DF8070003208DF805000448694614
:1022800050F82400FEF7CCFF1CBD00009C40000865
:10229000A00100200349044A31F8101052F8200030
:1022A000018570478C400008A00100200349044AC2
:1022B00031F8101052F82000816170478C400008FE
:1022C000A0010020044951F820108A8A034B33F8FA
:1022D000100042408A827047A00100208C40000814
:1022E0000349044A31F8101052F82000FEF7E4BF09
:1022F000844000089C01002070B5044622480E4628
:1023000086B050F824000121FFF758FD012108464E
:10231000FFF778FD1C4800258DF81050001F8DF840
:10232000135030F814000390184803A950F8240003
:10233000FEF776FF012E25D11348C01F015D401E18
:10234000005D00F027F81048801E30F8140000905F
:102350008DF8045008208DF8050001258DF80650F1
:102360006846FEF7EDFE0848801F005D8DF8080006
:102370000F208DF809008DF80A008DF80B5002A887
:10238000FFF708FC06B070BD884000089C010020E3
:102390007047000010B58A0721F003040649130FA7
:1023A00021440F228C689A4094438C608A6898403C
:1023B00002438A6010BD000000000140024920F085
:1023C0000700086070470000505C0040F0B50D4900
:1023D0000D4D48F68F770B78002148F2800C09E00C
:1023E000CEB205EB860422683A40324342EA0C0240
:1023F0002260491C9942F3D3034940F080004C31DC
:102400000860F0BD1C010020005C0040054A21F07E
:102410000101126892B202EBC000034A02EB4000D5
:1024200081607047505C0040006000400D4A1268B7
:102430003E2992B202EBC0000B4A02EB400209D9DE
:102440004809C90601D1401E80B24FF4004141EA5B
:10245000802004E04808C90700D0401C80021060BA
:1024600070470000505C00400C6000400A4A02EBDC
:10247000800210684BF68F7300EA0300CB0401D58D
:1024800080F48050890401D580F4005048F2800126
:102490000843106070470000005C0040064901EBF3
:1024A000800108684BF68F72104080F4405048F26B
:1024B0008002104308607047005C0040054A21F02C
:1024C0000101126892B202EBC000034A42F81010F8
:1024D00070470000505C004000600040044A1268F1
:1024E00092B202EBC000034A02EB40004160704729
:1024F000505C0040006000400A4A02EB8002106815
:1025000048F6BF7300EA0300CB0601D580F0100047
:10251000890601D580F0200048F280010843106050
:1025200070470000005C0040044A02EB8002106823
:1025300048F68F131840084310607047005C004055
:102540000CB50021214801910091026842F48032CB
:1025500002604FF4A063026802F400320092019A14
:10256000521C0192009A12B9019A9A42F3D1026860
:10257000920329D50121164A009112211160416868
:10258000416041684160416841F480614160416857
:1025900021F47C114160416841F4E8114160016817
:1025A00041F08071016001688901FCD5416821F02A
:1025B00003014160416841F0020141604168C1F39B
:1025C00081010229FAD10CBD00910CBD001002401E
:1025D000002002401CB501210846FFF713FC012131
:1025E0004805FFF7EBFB01214804FFF7E7FB4FF439
:1025F000C050009003208DF8050002208DF80400E3
:1026000000208DF806008DF807004FF090446946D1
:102610002046FEF705FE0E220B212046FEF73CFE6B
:102620000E220C212046FEF737FE1220FEF764FD35
:102630000448122101600821417101218171FEF7D6
:102640007FFD1CBD0000002010B50020FFF71AFD23
:102650000121BDE81040C805FFF7BCBB70B51648A6
:102660000068174D81B2154800EB4101098989B214
:1026700000EB41042868017A09290FD02178017004
:1026800061784170A088FEF7AAF8296848802089FF
:10269000FEF7A5F829688880A089C88028680121EC
:1026A0000172C08828B1FEF725FABDE87040FFF737
:1026B0004DBBFFF7ABFAF8E7505C0040006000400C
:1026C000600100202DE9F04134480068017811F0E4
:1026D0007F0102D0022905D05DE0417A01F0DF01DF
:1026E000417247E04188002955D10179F1BB417918
:1026F0002C4D21F080040A06294B55F8242003D5DF
:10270000C2F30112120102E0C2F3013212031E7879
:102710002346A6423FD94AB3807A38B308060DD57E
:1027200055F82400C0F3011001281DD11846FEF70A
:1027300015F920463021FFF7DFFE15E005EB840692
:102740003068C0F3013001280ED14BF68F7748F284
:10275000800894B11846FEF7EFF83068384080F4EE
:10276000405040EA080030600F4800E013E0006885
:10277000406980470020BDE8F0810C4890F82C109B
:102780000020FFF753FE2868384080F4405040EAAC
:1027900008002860E8E70220EDE700006001002063
:1027A0001C010020005C004068010020CC000020DB
:1027B00010B5074C30B107480068006880472068B2
:1027C0000A3010BD216801200882002010BD0000E1
:1027D0006001002068010020054A13685A8A10B180
:1027E0000868104470478888801A18820020704753
:1027F0006001002010B5074C30B1074800688068C0
:10280000804720680C3010BD21680120088200201C
:1028100010BD000060010020680100201F4910B5B4
:10282000096860B11E48002202800A7853060AD067
:1028300002F07F02012A16D0022A16D001E00220FF
:102840000882002010BD497A8A06027802D542F03B
:10285000020201E002F0FD0249060270D1B210D47A
:1028600001F0FE010FE00E4810BD4A7902F00F01A1
:1028700013060C4A52F8211007D5C1F3011106E0E6
:10288000017841F00101017003E0C1F30131012938
:10289000F6D00548006800698047E4E76001002041
:1028A0005A010020005C0040680100200A4810B571
:1028B00000680A4AC1785278914203D882780AB9EE
:1028C00082880AB1022010BD817205480068406804
:1028D0008047002010BD0000600100201C01002086
:1028E00068010020064810B50068417A41F02001D7
:1028F000417204480068C0698047002010BD000094
:10290000600100206801002070B51B4803681B4867
:10291000597921F0800500EB85000C06046821F050
:10292000800203D5C4F30114240102E0C4F301348E
:102930002403134D2D7895420FD95A886AB964B192
:102940009A7A52B10906016848F2800207D548F622
:10295000BF73194081F0100106E0022070BD4BF6F4
:102960008F73194081F4805111430160054800685C
:1029700080698047002070BD60010020005C00403D
:102980001C0100206801002010B50E4C0E4A206882
:102990001268C17892694079904721688A7A22B199
:1029A00018B9087908B9887808B1022010BD07481D
:1029B0000068C068804720684179C172C17801739E
:1029C000002010BD6001002064010020680100208B
:1029D000F8B52A49002000900A68284B284C92B28A
:1029E000403B00BF53F82050ADB244F82050401C8B
:1029F0000828F7D342F48060086040F001000860C6
:102A000020F001050D601D4A121D10684005FCD51F
:102A10004FF6FF301060002054F82060B6B243F843
:102A20002060401C0828F7D345F0080008600868BB
:102A300080B240F004000860124B186800901868DB
:102A400020F0030040F0010018600F48046844F0D3
:102A5000040404601468E40401D430BF09E04EF6B5
:102A6000FF7414600A6892B222F008020A600099AA
:102A70001960016821F004010160F8BD405C00406C
:102A80006C0200200070004010ED00E010B500F076
:102A90003FF802480178491C017010BD0900002070
:102AA000164810B5016841F47001016014480168CE
:102AB00041F0010101604168124A11404160016822
:102AC000114A11400160016821F4802101604168D0
:102AD00021F4FE014160C16A21F00F01C162016B66
:102AE0000A4A1140016300218160FFF729FD034973
:102AF0004FF000608039086010BD000088ED00E0F4
:102B0000001002400CC07FF8FFFFF6FECCFC00FF77
:102B100003484168002902D04168491E416070475E
:102B2000080000201220FEF7E7BA10B5FFF752FDAB
:102B3000FFF78AFD00F024F8BDE8104000F00CB863
:102B4000044A00284FF48041104601D0FEF7BBBB79
:102B5000FEF7BBBB00100048064805490222016091
:102B60000A72064A0449C0E90112086800470000D9
:102B70008C02002060010020CC00002020010020F9
:102B800038B54FF4A060FFF737F814208DF8000037
:102B900002208DF8010000258DF8025001248DF8E7
:102BA00003406846FEF7F6FF2A208DF800008DF8F6
:102BB00001408DF803406846FEF7ECFF06208DF8D3
:102BC00000008DF801506846FEF7E4FF38BD0000B4
:102BD0002DE9F0414A4E88B000243068494D6880A4
:102BE0006988494F38880140890506D54FF6FF515D
:102BF0003160297801F101012970698801EA000139
:102C0000080401D5FDF7F0FD688839884FF6FF38D4
:102C10000840400504D5C6F800803C48406880471D
:102C2000698838880140890402D54DF6FF7131600A
:102C300069880140C80405D54EF6FF703060002059
:102C4000FFF726FA68883988084000050BD5304818
:102C5000007810B1FFF7BCFE02E00220FFF718FA7F
:102C60004FF2FF703060688839880840C00543D54E
:102C70004FF6FF6030602248001D00684FF00002F0
:102C8000000435D56868401C68606868032830D93E
:102C90001B48001F016809072BD4016889B2A9608D
:102CA00017494FEA0D03443951F82470BFB243F875
:102CB0002470641C082CF7D3AC6844F00104AC60A9
:102CC000AC68A4B20460AC6824F00104AC60AC68E9
:102CD000A4B2046030684005FCD5C6F8008000202E
:102CE00053F82040A4B241F82040401C0828F7D3F4
:102CF0006A600720FFF7CCF908B0BDE8F08100005A
:102D0000445C00406C0000206C010020CC000020DE
:102D100048010020FFF75CBF054900200860054915
:102D20004FF43F4008800249091F086000207047A7
:102D3000445C00406C010020FEE70000084B10B529
:102D4000521C520803EB410108D003784478801CE0
:102D500043EA042321F8043B521EF6D110BD0000C3
:102D600000600040114910B50A68212802D02028CF
:102D700007D018E0107800F07F00212813D10C490B
:102D80000AE01078202300F07F010A48212901D0B1
:102D9000037008E00849037029B100209161508256
:102DA0008847002010BD022010BD000060010020F7
:102DB000D52D0008B0000020492F00080149FFF779
:102DC0000BBD0000C40000200149FFF705BD000055
:102DD000BC00002008B10448704704490820096875
:102DE0000882002070470000B4000020600100202D
:102DF00005490968C978042901D900207047034AA8
:102E000002EBC101FFF7E8BC60010020FC000020DC
:102E100009B9012801D9022070470020704700003D
:102E200007490968097801F07F01212903D10228A7
:102E300003D0222801D002207047002070470000F4
:102E400060010020334810B50068334A00218172C8
:102E5000D2794272C1720846FFF7B0FA4FF400719E
:102E60000020FFF761FB10210020FFF745FB402108
:102E70000020FFF7CBFA80210020FFF71FFB002086
:102E8000FDF77EFD254890F82C100020FFF7CEFAC4
:102E90000020FFF703FB00210120FFF745FBC021C5
:102EA0000120FFF70BFB20210120FFF725FB00216C
:102EB0000120FFF7DBFA4FF4C0610220FFF734FB7B
:102EC0004FF480710220FFF7F9FA00210220FFF78A
:102ED000CDFA20210220FFF70FFB00210320FFF78E
:102EE00023FB4FF488710320FFF790FA4021032061
:102EF000FFF79CFA4FF440510320FFF7B7FA002187
:102F00000320FFF7F9FA0020FFF760FA04490120D7
:102F1000086010BD60010020E03F0008CC000020E8
:102F2000440100200348807A002802D0024905208D
:102F3000086070478C0200204401002001490420F1
:102F4000086070474401002008B1044870470449F4
:102F5000082009680882002070470000B4000020A3
:102F60006001002003480178202901D1002101706F
:102F700070470000B00000207047000010B5FEF759
:102F8000D5F90548002400688472FEF701FFFFF7B9
:102F9000C3FE0248046010BD60010020440100200F
:102FA0004100080218BF04200A0E18BF40F00100BB
:102FB0004FF07F4232EA010108BF40F002000128D1
:102FC00008BF05207047000010B5B94A2DED020B6F
:102FD0002DED0C8B82B00F9921F000409FEDB6CB08
:102FE000904232DBA0F140530E9AA3F17F631A4363
:102FF0009FEDB38B14D0B449884202DC1BD10E98EC
:10300000C8B19DED0E0B53EC102B51EC100BFDF7DE
:10301000D7F841EC100B02B0BDEC0C8B02B010BD28
:103020000029C7BFB0EE480AF0EE680AB0EE4C0ABD
:10303000F0EE6C0AEFE7012000F064FB53EC182B74
:1030400051EC180BFDF7D5F95EE0A04A9FEDA09B6F
:103050009FEDA1AB90425ADAA1499FEDA3BB8142FB
:10306000A4BFB0EE4B0AF0EE6B0AD4DA9DED0E0B66
:1030700053EC102B51EC100BFDF749F941EC180BF8
:103080009B480621B0EE480AF0EE680A784400F04A
:10309000A4FA53EC182B51EC100BFDF738F941EC66
:1030A0001C0B9448B0EE480AF0EE680A04217844FC
:1030B00000F093FA53EC182B51EC100BFDF727F9A5
:1030C00053EC192BFDF77CF841EC100B51EC1C0B69
:1030D00053EC102BFDF78DF941EC100B53EC102B3A
:1030E0009DED0E0B51EC100BFDF711F953EC1A2B63
:1030F000FDF70AF99DED0E1B53EC112BFDF704F9BA
:1031000053EC1B2BFDF700F941EC100B83E79FED0F
:103110007A8B9FED7BBB9DED0E0B002953EC192B99
:1031200051EC100B52DAFDF74BF853EC182BFDF76E
:10313000EEF841EC180B74480621B0EE480AF0EEA8
:10314000680A784400F049FA53EC182B51EC100B44
:10315000FDF7DDF841EC1D0B6C48B0EE480AF0EECF
:10316000680A0421784400F038FA53EC182B51EC2B
:10317000100BFDF7CCF853EC192BFDF721F841ECBF
:10318000190B51EC180B00F0EBFE41EC180B53EC53
:10319000192B51EC1D0BFDF72CF953EC182BFDF7F7
:1031A000B6F853EC1A2BFDF7ACF841EC100B51ECD0
:1031B000180B53EC102BFDF703F853EC1B2BFDF70A
:1031C000A6F853EC1C2BFDF79FF89DE7FDF79CF844
:1031D00053EC182BFDF79BF841EC180B00F0C0FEE8
:1031E00041EC1A0B00208DED00AB00909DED000B23
:1031F00051EC1A0B53EC102BFCF7E2FF9DED000B8A
:1032000041EC1C0B53EC102B51EC100BFDF77FF82D
:1032100053EC182BFDF778F853EC1C2BFDF7E9F86D
:1032200041EC1C0B3A48B0EE480AF0EE680A062161
:10323000784400F0D2F953EC182B51EC100BFDF749
:1032400066F841EC1D0B3348B0EE480AF0EE680A10
:103250000421784400F0C1F953EC182B51EC100B09
:10326000FDF755F853EC192BFCF7AAFF41EC100BB6
:1032700051EC1D0B53EC102BFDF7BBF853EC1A2B44
:10328000FDF745F853EC1C2BFCF79AFF41EC100BB3
:1032900053EC102B9DED000B51EC100BFCF790FF45
:1032A00053EC1B2BFDF733F82EE700000000000065
:1032B0000000F03F00000000182D4454FB2109409D
:1032C00000000000000000000000F07F0000E03F70
:1032D000000000000000F03F075C143326A6913C7C
:1032E0000000603C00000000182D4454FB21F93F11
:1032F000301000003E100000000000000000E03F21
:1033000000000000000000407A0F0000880F00005D
:103310008C0E00009A0E000010EE100A10B510EE90
:10332000901A4FF0684202EB40032DED028BB3F18F
:10333000654F3CBF02EB4102B2F1654F3ED34FF007
:103340007F42B2EB400F2FBFB2EB410F30EE200AAD
:10335000BDEC028B10BD40EA01035B0008BF41F0E9
:10336000FF410BD0B2EB400F08BFB2EB410F08D1C9
:1033700020F0804000EE100A21F0804100EE901A0B
:103380001CE0B2EB400F12BF5FEA410240F0FF4089
:1033900001F0004112D04FEA410292EA40030DD4FD
:1033A000002AB4BF9FED561A9FED561A20EE010A6F
:1033B00060EE810A10EE100A10EE901AC0F3C753A7
:1033C000C1F3C7529A1A1B2A09DD10F0004F14BF2F
:1033D0009FED4D0A9FED4D0ABDEC028B10BD12F121
:1033E0001A0F1BDA11F0004F09D010F0004F0CBF7C
:1033F0009FED470A9FED470ABDEC028B10BD80EEA2
:10340000208A18EE100AFFF7CBFD042808BF00F051
:1034100061F9B0EE480ABDEC028B10BD4200B2EB80
:10342000410F37D910F0004F19BFDFED3B1A9FED68
:103430003B1ADFED3B1A9FED3B1AB0EE602A0A46BD
:10344000F1EE400A80F00041B0EE420A10460A1A3E
:103450005200B2F1807F31D24840DFED332A9FED38
:10346000333A10F0004F1DBF9FED312A71EEE21A82
:1034700031EE431A9FED2F2A04BF71EEA21A31EEEE
:10348000031AF0EE402A42EE602A40EE020A82EE73
:10349000A02A15E011F0004F04BF9FED271AF0EEAF
:1034A000411AD4D010F0004F19BFDFED241A9FED60
:1034B000241ADFED241A9FED241AC8E780EE202A93
:1034C000DFED220ADFED222ABDEC028B22EE020A9A
:1034D00040EE202ADFED1F0A40EE220ADFED1E2A11
:1034E00040EE202ADFED1D0A40EE220A22EE000AFD
:1034F00000EE201A31EE020A30EE210A10BD000063
:103500000000802F0000804FDB0FC9BFDB0FC93FD9
:10351000DB0F4940DB0F49C00000C9BF22AAFDB93B
:103520000000C93F22AAFD390060ED3EC30ACE3734
:10353000000000BF0000003F00000000000049C084
:1035400022AA7DBA0000494022AA7D3A2DAD65BD70
:103550008FB8D53D0FB511BE61C84C3EA8AAAABE12
:1035600000B52DED048BB0EE408AF0EE608A83B09A
:1035700051EC180BFDF791F841EC190B19EE100AFC
:1035800019EE901A8DED009B002818BF012008430A
:1035900020F00040C0F17F6000F1E040C00F14D087
:1035A00018EE101A18EE900A8DED008B002918BF46
:1035B0000121084320F00040C0F17F6000F1E040AD
:1035C000C00F04BF012000F09DF8B0EE490A03B01F
:1035D000F0EE690ABDEC048B00BD70B504462DED1C
:1035E000028B4D1E00EBC500B0EE408AF0EE608A03
:1035F00090ED000B35F0060017D053EC182B51EC72
:10360000100BFCF784FE41EC100B6D1E04EBC500A3
:1036100090ED001B51EC100B53EC112BFCF7D0FD7F
:1036200041EC100B35F00600E7D1022D36D0042D09
:103630001CD0062D1CBFBDEC028B70BD53EC182BAB
:1036400051EC100BFCF763FE94ED0A1B53EC112BAD
:10365000FCF7B6FD53EC182BFCF759FE94ED080B64
:1036600053EC102BFCF7ACFD41EC100B53EC182B7A
:1036700051EC100BFCF74BFE94ED060B53EC102BAA
:10368000FCF79EFD53EC182BFCF741FE94ED041B58
:1036900053EC112BFCF794FD41EC100B53EC182B61
:1036A00051EC100BFCF733FE94ED020B53EC102B96
:1036B000FCF786FD53EC182BFCF729FE94ED000B6C
:1036C00053EC102BFCF77CFDBDEC028B41EC100B96
:1036D00070BD00009FED020A20EE000A7047000056
:1036E0000000001002E008C8121F08C1002AFAD129
:1036F00070477047002001E001C1121F002AFBD172
:10370000704700000149086070470000C8010020B0
:103710002DED0A8BFE48FEF78DFBFD486421002449
:103720004068B0FBF1F1491EB1F1807F08D24FF043
:10373000E0204161F749F0220A70846107210161AC
:103740000020FEF783FD0120FEF780FD0220FEF73A
:103750007DFD0320FEF77AFD0420FEF777FD0520AE
:10376000FEF774FD0620FEF771FD0720FEF76EFDE3
:1037700001210020FEF7C0FDFFF7D7F9A046204643
:10378000E54CA060DFF888936FF0040AA9F10C09FA
:10379000A9F10C059FEDE1AB9FEDE28B9FEDE39B63
:1037A0009FEDE4BAE44FE54EDFF894B30020FEF756
:1037B00071FD0320FEF76EFD0420FEF76BFD012076
:1037C000FEF768FD0720FEF765FD0520FEF762FDA8
:1037D0000620FEF75FFD0220FEF75CFD2FE00020D3
:1037E000FEF770FD0520FDF753FA0220FEF76AFD93
:1037F0000520FDF74DFA0420FEF764FD0520FDF7D6
:1038000047FA0620FEF75EFD0520FDF741FA072086
:10381000FEF758FD0520FDF73BFA0520FEF752FDA7
:103820000520FDF735FA0320FEF74CFD0520FDF7D6
:103830002FFA0120FEF746FD0520FDF729FAA068C2
:103840000028CCD084F801800020FEF723FD03205F
:10385000FEF720FD0420FEF71DFD0120FEF71AFDF6
:103860000720FEF717FD0520FEF714FD0620FEF7E2
:1038700011FD0220FEF70EFDFDF760FB68E06078A9
:103880000528FCD184F801800020FEF703FD032009
:10389000FEF700FD0420FEF7FDFC0120FEF7FAFC18
:1038A0000720FEF7F7FC0520FEF7F4FC0620FEF7E4
:1038B000F1FC0220FEF7EEFC95480C38FDF760FBAA
:1038C00099ED000A4946FDEEC00A10EE900A40B29A
:1038D000002810EE900A40B200DA4042C0B2A07058
:1038E00091ED010ABDEEC00A10EE102A52B2002A74
:1038F00010EE102A52B200DA5242D2B22270904236
:1039000012D910EE900A40B2052802DD0720FEF71A
:10391000CDFC99ED000ABDEEC00A10EE100A40B2CF
:10392000504515DA002011E010EE100A40B2504563
:1039300002DA0320FEF7BAFC99ED010ABDEEC00AD7
:1039400010EE100A40B2052802DD0420FEF7AEFC9E
:10395000A068012893D084F801800120FEF79AFC2A
:103960000020FEF797FC0320FEF794FC0420FEF7EE
:1039700091FC0720FEF78EFC0520FEF78BFC06204D
:10398000FEF788FC0220FEF785FCFDF78BF9CEE2FE
:1039900060780528FCD184F801805D482438FDF763
:1039A0002FFA5B481838FDF7AFF900209FED650A44
:1039B00005EB8001401C91ED001AC0B20328C1EE56
:1039C000000AC1ED000AF3D395ED000AD5ED010A16
:1039D00020EE000A00EEA00AD5ED020A00EEA00AD1
:1039E00010EE100AFCF774FD41EC100BFFF7B8FD68
:1039F00051EC100BFCF77FFD00EE100A84ED080A75
:103A0000D5ED010AF1EE600A80EE801A84ED091A04
:103A100021EE010A10EE100AFCF75AFD9FED4ACB89
:103A200053EC1C2BFCF770FC41EC100BFFF798FDDE
:103A300051EC100BFCF75FFDA062D5ED000A94ED90
:103A4000081A80EE810A84ED0B0A20EE000A10EEBF
:103A5000100AFCF73DFD53EC1C2BFCF755FC41EC28
:103A6000100BFFF77DFD51EC100BFCF744FD2061BE
:103A700094ED090AB5EEC00AF1EE10FA94ED0A0AC7
:103A80002EDDB5EEC00AF1EE10FA12DD10EE100ACE
:103A9000FCF71EFD41EC100BFFF796FA53EC182BC8
:103AA00051EC100BFCF733FC53EC192BFCF7A1FC89
:103AB00056E010EE100AFCF70BFD41EC100BFFF77F
:103AC00083FA53EC182B51EC100BFCF720FC53EC51
:103AD000192BFCF78EFC41EC100B53EC182B3BE040
:103AE000B5EEC00AF1EE10FAE3DD10EE100AFCF7B5
:103AF000EFFC41EC100BFFF767FA53EC182B51EC7D
:103B0000100BFCF704FC53EC192BFCF772FC1FE0C4
:103B10003002002023ED00E008000020000000003B
:103B200000807640000000000080664000000060D9
:103B3000FB2109400000B443000020420000B443D0
:103B40000000C8410000C842000000000000F03F33
:103B500053EC1A2B41EC100B51EC100BFCF730FB23
:103B6000FCF7C9FC606194ED0B0AB5EEC00AF1EEFA
:103B700010FA94ED040A2EDDB5EEC00AF1EE10FA4B
:103B800012DD10EE100AFCF7A3FC41EC100BFFF75E
:103B90001BFA53EC182B51EC100BFCF7B8FB53EC51
:103BA000192BFCF726FC35E010EE100AFCF790FC10
:103BB00041EC100BFFF708FA53EC182B51EC100BEB
:103BC000FCF7A5FB53EC192BFCF713FC41EC100B95
:103BD00053EC182B1AE0B5EEC00AF1EE10FAE3DD53
:103BE00010EE100AFCF774FC41EC100BFFF7ECF937
:103BF00053EC182B51EC100BFCF789FB53EC192BF1
:103C0000FCF7F7FB53EC1A2B41EC100B51EC100BAB
:103C1000FCF7D6FAFCF76FFCA06194ED050A10EEF4
:103C2000100AB04203DB30EE4B0A84ED050A94ED36
:103C3000060A10EE100AB04203DB30EE4B0A84EDA8
:103C4000060ABD4894ED041A94ED0B0AD0ED001A53
:103C500090ED022A61EE810A42EE000AC4ED0C0AE0
:103C600094ED092AD4ED0A2A61EE821A21EE800A27
:103C7000D0ED011A01EEA20A61EE821A01EEC10A2C
:103C800084ED070AFFF748FBDFEDAC0A20EE200ABF
:103C9000DFEDAB0A80EE201A84ED031A94ED030ADF
:103CA000B5EEC00AF1EE10FA05D294ED030A30EE3B
:103CB0000B0A84ED030A6069B8426FDCA069B84260
:103CC000FBDC94ED030A10EE100A584506DA94ED79
:103CD000030AB5EEC00AF1EE10FA0CDA94ED030A0D
:103CE000984810EE102A824219DB94ED030A10EE78
:103CF000102AB24213DC0720FEF7D8FA0020FEF7A4
:103D0000C9FA0320FEF7C6FA0420FEF7C3FA012021
:103D1000FEF7C0FA0520FEF7BDFA0620E8E094EDB4
:103D2000030A894A10EE103A934216DA94ED030A18
:103D300010EE103A5B4510DB0620FEF7B7FA0320C1
:103D4000FEF7A8FA0720FEF7A5FA0020FEF7A2FA70
:103D50000520A4E0FEF79EFAE9E094ED030A7B4912
:103D600010EE103A8B421ADA94ED030A10EE103A74
:103D7000934214DB0420FEF799FA0020FEF78AFA3A
:103D80000120FEF787FA0620FEF784FA0720FEF7E7
:103D900081FA0520FEF77EFA0320A9E0ACE094ED5D
:103DA000030A6B4A10EE103A93421CDA94ED030AB0
:103DB00010EE103A8B4216DB0220FEF777FA032052
:103DC000FEF768FA0720FEF765FA0520FEF762FAAB
:103DD0000620FEF75FFA0420FEF75CFA0120FEF7EA
:103DE00059FA0020B6E794ED030A5A4B10EE101A68
:103DF000994219DA94ED030A10EE101A914213DB7E
:103E00000020FEF753FA0320FEF744FA0120FEF7E4
:103E100041FA0520FEF73EFA0620FEF73BFA0220A3
:103E2000FEF738FA072040E094ED030A4A4910EE05
:103E3000102A8A4219DA94ED030A10EE102A9A42E7
:103E400013DB0120FEF732FA0320FEF723FA0720E6
:103E5000FEF720FA0520FEF71DFA0620FEF71AFAF3
:103E60000220FEF717FA00201FE094ED030A3B4AF8
:103E700010EE103A93421CDA94ED030A10EE103A59
:103E80008B4216DB0320FEF711FA0620FEF702FA3A
:103E90000720FEF7FFF90520FEF7FCF90020FEF7EA
:103EA000F9F90220FEF7F6F90120FEF7F3F90420F4
:103EB00050E794ED030A10EE101A814237DA94EDC0
:103EC000030A10EE100A904231DB0520FEF7EEF9EE
:103ED0000320FEF7DFF90720FEF7DCF90420FEF7E8
:103EE000D9F90620FEF7D6F90020FEF7D3F9012014
:103EF000FEF7D0F902202DE70420FEF7E3F90320B6
:103F0000FEF7E0F90720FEF7DDF90520FEF7DAF904
:103F10000620FEF7D7F90020FEF7D4F90120FEF7BE
:103F2000D1F90220FEF7CEF90520FCF7B1FEA0681A
:103F300002287FF43BAC2BE50C0200200000344348
:103F4000DB0F49400000AA4300008C420000E6421B
:103F50000000204300004D4300007A43008093435B
:103F600000B52DED048B83B041EC180BFCF795FBED
:103F700041EC190B19EE100A19EE901A8DED009B09
:103F8000002818BF0120084320F00040C0F17F60E6
:103F900000F1E040C00F14D018EE101A18EE900A8D
:103FA0008DED008B002918BF0121084320F000404F
:103FB000C0F17F6000F1E040C00F04BF0120FFF7B7
:103FC000A1FB51EC190B03B0BDEC048B00BD120139
:103FD0000002020000408304405700020102030176
:103FE00009024300020100C032090400000102027C
:103FF000010005240010010524010001042402022F
:104000000524060001070582030800FF09040100DA
:10401000020A0000000705030240000007058102B4
:10402000400000040309042603530054004D0069B6
:1040300000630072006F0065006C0065006300742F
:104040000072006F006E006900630073003203535A
:104050000054004D00330032002000560069007209
:10406000007400750061006C00200043004F004D9B
:1040700000200050006F007200740020002000003B
:104080000000060001000000000002000002000124
:104090000004008000080040001000200000200004
:1040A0000000200000002000000020000000200090
:1040B00000002000000020000000200000000000A0
:1040C000555555555555C53F7D6FEB0312D6D4BF99
:1040D0005544880E55C1C93F3B8F68B52882A4BF9F
:1040E00088B20175E0EF493F09F7FD0DE13D023F60
:1040F0004B2D8A1C273A03C0C88A599CE52A0040E8
:1041000059018D1B6C06E6BF82922EB1C5B8B33F34
:104110003041000800000020CC01000080070008AA
:10412000D4410008CC010020DC040000F436000873
:1041300001445A0104141A03531254124D1233024B
:104140002132134D100C1C08911B040A11592451E3
:104150002AC26E120813CE3F3308121AE008324307
:10416000137D2F1408452E1B0865081A7904136562
:104170002D1B0821101A11041AC90C1ABD041AF1BA
:10418000044132401323403308041A27082A269496
:10419000190829BA224C33201A1A046729741A25DF
:1041A0004C0916A41A3D1C412992012A2D01020333
:1041B00004042D060708093C120212041A064912CB
:1041C0000A120C12101A209E4A80531A480F091E18
:0441D000042162A0C4
:040000050800018965
:00000001FF
